{
  "transactions": [
    {
      "hash": "0x66c6f437f58a7bcba360db72f3ca7230c823fd857a5464617dcec7d7499c0a40",
      "transactionType": "CREATE",
      "contractName": "MockRouter",
      "contractAddress": "0xF1A6152858Bd932e36BD18218754635794EB4Cd6",
      "function": null,
      "arguments": null,
      "rpc": "https://polygon-mumbai.infura.io/v3/042a74c34b3c40c4a79f5d0ba944298b",
      "transaction": {
        "type": "0x00",
        "from": "0x0e7de56cbf04719f5910e845885eb925a1cc39e0",
        "gas": "0x332e9",
        "value": "0x0",
        "data": "0x608060405234801561001057600080fd5b506101f4806100206000396000f3fe60806040526004361061001e5760003560e01c8063e116bab314610023575b600080fd5b610036610031366004610147565b610038565b005b60405163602266c760e11b8152600481018490526001600160a01b03828116602483015260006044830181905260806064840152608483015285169063c044cd8e90349060a40160206040518083038185885af115801561009d573d6000803e3d6000fd5b50505050506040513d601f19601f820116820180604052508101906100c2919061018d565b5060405163a5602e4160e01b81526001600160a01b0382811660048301526024820185905285169063a5602e4190604401600060405180830381600087803b15801561010d57600080fd5b505af1158015610121573d6000803e3d6000fd5b5050505050505050565b80356001600160a01b038116811461014257600080fd5b919050565b6000806000806080858703121561015d57600080fd5b6101668561012b565b935060208501359250604085013591506101826060860161012b565b905092959194509250565b60006020828403121561019f57600080fd5b81516001600160e01b0319811681146101b757600080fd5b939250505056fea264697066735822122043bed7c1e542353924255d2fe3c02d4557eef900184a245cef46e7fa6b76cc1364736f6c634300080f0033",
        "nonce": "0x18"
      },
      "additionalContracts": []
    },
    {
      "hash": "0x5bd021aa50f5c43c4487bb3be0580cca7f9670c2b8b8a300a7eeead19e1fdc61",
      "transactionType": "CREATE",
      "contractName": "MockRoyaltyToken",
      "contractAddress": "0xa6C542A5736E501c3bE47657A621dd563FA1c8E3",
      "function": null,
      "arguments": null,
      "rpc": "https://polygon-mumbai.infura.io/v3/042a74c34b3c40c4a79f5d0ba944298b",
      "transaction": {
        "type": "0x00",
        "from": "0x0e7de56cbf04719f5910e845885eb925a1cc39e0",
        "gas": "0x18292d",
        "value": "0x0",
        "data": "0x6080604052600d80546001600160a01b031916602a1790553480156200002457600080fd5b5060408051602080820183526000808352835191820190935282815290916200004e83826200010b565b5060016200005d82826200010b565b505050620001d7565b634e487b7160e01b600052604160045260246000fd5b600181811c908216806200009157607f821691505b602082108103620000b257634e487b7160e01b600052602260045260246000fd5b50919050565b601f8211156200010657600081815260208120601f850160051c81016020861015620000e15750805b601f850160051c820191505b818110156200010257828155600101620000ed565b5050505b505050565b81516001600160401b0381111562000127576200012762000066565b6200013f816200013884546200007c565b84620000b8565b602080601f8311600181146200017757600084156200015e5750858301515b600019600386901b1c1916600185901b17855562000102565b600085815260208120601f198616915b82811015620001a85788860151825594840194600190910190840162000187565b5085821015620001c75787850151600019600388901b60f8161c191681555b5050505050600190811b01905550565b61147480620001e76000396000f3fe6080604052600436106101145760003560e01c806370a08231116100a0578063b88d4fde11610064578063b88d4fde14610342578063c044cd8e14610362578063c87b56dd1461038e578063e985e9c5146103bc578063f080906d146103f757600080fd5b806370a082311461029f57806395d89b41146102cd578063a0712d68146102e2578063a22cb46514610302578063a5602e411461032257600080fd5b806323b872dd116100e757806323b872dd146101e05780632a55205a1461020057806342842e0e1461023f5780636352211e1461025f5780636fcd0ba71461027f57600080fd5b806301ffc9a71461011957806306fdde031461014e578063081812fc14610170578063095ea7b3146101be575b600080fd5b34801561012557600080fd5b50610139610134366004611027565b610430565b60405190151581526020015b60405180910390f35b34801561015a57600080fd5b50610163610441565b604051610145919061104b565b34801561017c57600080fd5b506101a661018b3660046110a0565b6004602052600090815260409020546001600160a01b031681565b6040516001600160a01b039091168152602001610145565b3480156101ca57600080fd5b506101de6101d93660046110d0565b6104cf565b005b3480156101ec57600080fd5b506101de6101fb3660046110fa565b6105b6565b34801561020c57600080fd5b5061022061021b366004611136565b61077d565b604080516001600160a01b039093168352602083019190915201610145565b34801561024b57600080fd5b506101de61025a3660046110fa565b61084a565b34801561026b57600080fd5b506101a661027a3660046110a0565b610942565b34801561028b57600080fd5b5061013961029a366004611158565b610999565b3480156102ab57600080fd5b506102bf6102ba36600461118b565b610b2e565b604051908152602001610145565b3480156102d957600080fd5b50610163610b91565b3480156102ee57600080fd5b506101de6102fd3660046110a0565b610b9e565b34801561030e57600080fd5b506101de61031d3660046111b4565b610bab565b34801561032e57600080fd5b506101de61033d3660046110d0565b610c17565b34801561034e57600080fd5b506101de61035d36600461122d565b610c58565b61037561037036600461129c565b610d40565b6040516001600160e01b03199091168152602001610145565b34801561039a57600080fd5b506101636103a93660046110a0565b5060408051602081019091526000815290565b3480156103c857600080fd5b506101396103d7366004611158565b600560209081526000928352604080842090915290825290205460ff1681565b34801561040357600080fd5b506101a66104123660046110a0565b6000908152600a60205260409020600101546001600160a01b031690565b600061043b82610eac565b92915050565b6000805461044e906112ee565b80601f016020809104026020016040519081016040528092919081815260200182805461047a906112ee565b80156104c75780601f1061049c576101008083540402835291602001916104c7565b820191906000526020600020905b8154815290600101906020018083116104aa57829003601f168201915b505050505081565b6000818152600260205260409020546001600160a01b03163381148061051857506001600160a01b038116600090815260056020908152604080832033845290915290205460ff165b61055a5760405162461bcd60e51b815260206004820152600e60248201526d1393d517d055551213d49256915160921b60448201526064015b60405180910390fd5b60008281526004602052604080822080546001600160a01b0319166001600160a01b0387811691821790925591518593918516917f8c5be1e5ebec7d5bd14f71427d1e84f3dd0314c0f7b2291e5b200ac8c7c3b92591a4505050565b6000818152600260205260409020546001600160a01b0384811691161461060c5760405162461bcd60e51b815260206004820152600a60248201526957524f4e475f46524f4d60b01b6044820152606401610551565b6001600160a01b0382166106565760405162461bcd60e51b81526020600482015260116024820152701253959053125117d49150d25412515395607a1b6044820152606401610551565b336001600160a01b038416148061069057506001600160a01b038316600090815260056020908152604080832033845290915290205460ff165b806106b157506000818152600460205260409020546001600160a01b031633145b6106ee5760405162461bcd60e51b815260206004820152600e60248201526d1393d517d055551213d49256915160921b6044820152606401610551565b6001600160a01b0380841660008181526003602090815260408083208054600019019055938616808352848320805460010190558583526002825284832080546001600160a01b03199081168317909155600490925284832080549092169091559251849392917fddf252ad1be2c89b69c2b068fc378daa952ba7f163c4a11628f55a4df523b3ef91a4505050565b6000828152600a60209081526040808320815160608101835281546001600160a01b03808216808452600160a01b9092046001600160601b031695830195909552600190920154909316918301919091528291906108125750604080516060810182526008546001600160a01b038082168352600160a01b9091046001600160601b0316602083015260095416918101919091525b602081015160009061271090610831906001600160601b03168761133e565b61083b919061135d565b309450925050505b9250929050565b6108558383836105b6565b6001600160a01b0382163b15806108fe5750604051630a85bd0160e11b8082523360048301526001600160a01b03858116602484015260448301849052608060648401526000608484015290919084169063150b7a029060a4016020604051808303816000875af11580156108ce573d6000803e3d6000fd5b505050506040513d601f19601f820116820180604052508101906108f2919061137f565b6001600160e01b031916145b61093d5760405162461bcd60e51b815260206004820152601060248201526f155394d0519157d49150d2541251539560821b6044820152606401610551565b505050565b6000818152600260205260409020546001600160a01b0316806109945760405162461bcd60e51b815260206004820152600a6024820152691393d517d3525395115160b21b6044820152606401610551565b919050565b6001600160a01b038281166000908152600b602090815260408083209385168084529390915281208054908290559091610a26576040516001600160a01b038516908290600081818185875af1925050503d8060008114610a16576040519150601f19603f3d011682016040523d82523d6000602084013e610a1b565b606091505b505080925050610a9c565b60405163a9059cbb60e01b81526001600160a01b0385811660048301526024820183905284169063a9059cbb906044016020604051808303816000875af1158015610a75573d6000803e3d6000fd5b505050506040513d601f19601f82011682018060405250810190610a99919061139c565b91505b6040516370a0823160e01b81523060048201526001600160a01b038416906370a0823190602401602060405180830381865afa158015610ae0573d6000803e3d6000fd5b505050506040513d601f19601f82011682018060405250810190610b0491906113b9565b6001600160a01b0384166000908152600c602052604090205581610b2757600080fd5b5092915050565b60006001600160a01b038216610b755760405162461bcd60e51b815260206004820152600c60248201526b5a45524f5f4144445245535360a01b6044820152606401610551565b506001600160a01b031660009081526003602052604090205490565b6001805461044e906112ee565b610ba83382610ed1565b50565b3360008181526005602090815260408083206001600160a01b03871680855290835292819020805460ff191686151590811790915590519081529192917f17307eab39ab6107e8899845ad3d59bd9653f200f220920489ca2b5937696c31910160405180910390a35050565b600d5460405182916001600160a01b03808616929116907fddf252ad1be2c89b69c2b068fc378daa952ba7f163c4a11628f55a4df523b3ef90600090a45050565b610c638585856105b6565b6001600160a01b0384163b1580610cfa5750604051630a85bd0160e11b808252906001600160a01b0386169063150b7a0290610cab9033908a908990899089906004016113d2565b6020604051808303816000875af1158015610cca573d6000803e3d6000fd5b505050506040513d601f19601f82011682018060405250810190610cee919061137f565b6001600160e01b031916145b610d395760405162461bcd60e51b815260206004820152601060248201526f155394d0519157d49150d2541251539560821b6044820152606401610551565b5050505050565b6000858152600a60205260408120546001600160a01b039081169082908616610d6a575034610e17565b6001600160a01b0386166000818152600c60205260408082205490516370a0823160e01b81523060048201529092906370a0823190602401602060405180830381865afa158015610dbf573d6000803e3d6000fd5b505050506040513d601f19601f82011682018060405250810190610de391906113b9565b6001600160a01b0389166000908152600c602052604090208190559050818111610e0e576000610e12565b5080805b925050505b6001600160a01b038083166000908152600b60209081526040808320938a1683529290529081208054839290610e4e908490611426565b90915550506040518181526001600160a01b03808816919089169033907f5998eadb196dd928558ef997e6f147764b34df01610f3d48806a697d4db0eccc9060200160405180910390a45063602266c760e11b979650505050505050565b60006001600160e01b031982166330c45de360e01b148061043b575061043b82610fdc565b6001600160a01b038216610f1b5760405162461bcd60e51b81526020600482015260116024820152701253959053125117d49150d25412515395607a1b6044820152606401610551565b6000818152600260205260409020546001600160a01b031615610f715760405162461bcd60e51b815260206004820152600e60248201526d1053149150511657d3525395115160921b6044820152606401610551565b6001600160a01b038216600081815260036020908152604080832080546001019055848352600290915280822080546001600160a01b0319168417905551839291907fddf252ad1be2c89b69c2b068fc378daa952ba7f163c4a11628f55a4df523b3ef908290a45050565b60006001600160e01b0319821663152a902d60e11b148061043b57506301ffc9a760e01b6001600160e01b031983161461043b565b6001600160e01b031981168114610ba857600080fd5b60006020828403121561103957600080fd5b813561104481611011565b9392505050565b600060208083528351808285015260005b818110156110785785810183015185820160400152820161105c565b8181111561108a576000604083870101525b50601f01601f1916929092016040019392505050565b6000602082840312156110b257600080fd5b5035919050565b80356001600160a01b038116811461099457600080fd5b600080604083850312156110e357600080fd5b6110ec836110b9565b946020939093013593505050565b60008060006060848603121561110f57600080fd5b611118846110b9565b9250611126602085016110b9565b9150604084013590509250925092565b6000806040838503121561114957600080fd5b50508035926020909101359150565b6000806040838503121561116b57600080fd5b611174836110b9565b9150611182602084016110b9565b90509250929050565b60006020828403121561119d57600080fd5b611044826110b9565b8015158114610ba857600080fd5b600080604083850312156111c757600080fd5b6111d0836110b9565b915060208301356111e0816111a6565b809150509250929050565b60008083601f8401126111fd57600080fd5b50813567ffffffffffffffff81111561121557600080fd5b60208301915083602082850101111561084357600080fd5b60008060008060006080868803121561124557600080fd5b61124e866110b9565b945061125c602087016110b9565b935060408601359250606086013567ffffffffffffffff81111561127f57600080fd5b61128b888289016111eb565b969995985093965092949392505050565b6000806000806000608086880312156112b457600080fd5b853594506112c4602087016110b9565b93506112d2604087016110b9565b9250606086013567ffffffffffffffff81111561127f57600080fd5b600181811c9082168061130257607f821691505b60208210810361132257634e487b7160e01b600052602260045260246000fd5b50919050565b634e487b7160e01b600052601160045260246000fd5b600081600019048311821515161561135857611358611328565b500290565b60008261137a57634e487b7160e01b600052601260045260246000fd5b500490565b60006020828403121561139157600080fd5b815161104481611011565b6000602082840312156113ae57600080fd5b8151611044816111a6565b6000602082840312156113cb57600080fd5b5051919050565b6001600160a01b038681168252851660208201526040810184905260806060820181905281018290526000828460a0840137600060a0848401015260a0601f19601f85011683010190509695505050505050565b6000821982111561143957611439611328565b50019056fea264697066735822122019fd5e4714d39671c103b57035f98c99b1de5329a16f65d2d00d2f5fc50a63c464736f6c634300080f0033",
        "nonce": "0x19"
      },
      "additionalContracts": []
    },
    {
      "hash": "0x52a3f9088299385d70861bcf6f19732dd71714e9a7a97b0e80d8ff2d2719e7f0",
      "transactionType": "CALL",
      "contractName": "MockRoyaltyToken",
      "contractAddress": "0xa6C542A5736E501c3bE47657A621dd563FA1c8E3",
      "function": "mint(uint256)",
      "arguments": [
        "0"
      ],
      "rpc": "https://polygon-mumbai.infura.io/v3/042a74c34b3c40c4a79f5d0ba944298b",
      "transaction": {
        "type": "0x00",
        "from": "0x0e7de56cbf04719f5910e845885eb925a1cc39e0",
        "to": "0xa6c542a5736e501c3be47657a621dd563fa1c8e3",
        "gas": "0x16f43",
        "value": "0x0",
        "data": "0xa0712d680000000000000000000000000000000000000000000000000000000000000000",
        "nonce": "0x1a"
      },
      "additionalContracts": []
    },
    {
      "hash": "0x706bd8023065b522c94ebd940257acca50ec24742e056d96aae937fd9eb8e4f7",
      "transactionType": "CALL",
      "contractName": "MockRoyaltyToken",
      "contractAddress": "0xa6C542A5736E501c3bE47657A621dd563FA1c8E3",
      "function": "mint(uint256)",
      "arguments": [
        "1"
      ],
      "rpc": "https://polygon-mumbai.infura.io/v3/042a74c34b3c40c4a79f5d0ba944298b",
      "transaction": {
        "type": "0x00",
        "from": "0x0e7de56cbf04719f5910e845885eb925a1cc39e0",
        "to": "0xa6c542a5736e501c3be47657a621dd563fa1c8e3",
        "gas": "0x11311",
        "value": "0x0",
        "data": "0xa0712d680000000000000000000000000000000000000000000000000000000000000001",
        "nonce": "0x1b"
      },
      "additionalContracts": []
    },
    {
      "hash": "0x6ae3aa33d01e0c11cfecae21d982f3a930f2ac9691ead0d308d139644db8d6b2",
      "transactionType": "CALL",
      "contractName": "MockRoyaltyToken",
      "contractAddress": "0xa6C542A5736E501c3bE47657A621dd563FA1c8E3",
      "function": "mint(uint256)",
      "arguments": [
        "2"
      ],
      "rpc": "https://polygon-mumbai.infura.io/v3/042a74c34b3c40c4a79f5d0ba944298b",
      "transaction": {
        "type": "0x00",
        "from": "0x0e7de56cbf04719f5910e845885eb925a1cc39e0",
        "to": "0xa6c542a5736e501c3be47657a621dd563fa1c8e3",
        "gas": "0x11311",
        "value": "0x0",
        "data": "0xa0712d680000000000000000000000000000000000000000000000000000000000000002",
        "nonce": "0x1c"
      },
      "additionalContracts": []
    },
    {
      "hash": "0x17af8cb69470d8ec67a0a54b4861976b486e87fb2615742dfccc7cdbce594c65",
      "transactionType": "CALL",
      "contractName": "MockRoyaltyToken",
      "contractAddress": "0xa6C542A5736E501c3bE47657A621dd563FA1c8E3",
      "function": "mint(uint256)",
      "arguments": [
        "3"
      ],
      "rpc": "https://polygon-mumbai.infura.io/v3/042a74c34b3c40c4a79f5d0ba944298b",
      "transaction": {
        "type": "0x00",
        "from": "0x0e7de56cbf04719f5910e845885eb925a1cc39e0",
        "to": "0xa6c542a5736e501c3be47657a621dd563fa1c8e3",
        "gas": "0x11311",
        "value": "0x0",
        "data": "0xa0712d680000000000000000000000000000000000000000000000000000000000000003",
        "nonce": "0x1d"
      },
      "additionalContracts": []
    },
    {
      "hash": "0x82ddda3b3706343549a788ef5ad9ba4911a6a315c65fb8d14943fe64ef8d6391",
      "transactionType": "CALL",
      "contractName": "MockRoyaltyToken",
      "contractAddress": "0xa6C542A5736E501c3bE47657A621dd563FA1c8E3",
      "function": "mint(uint256)",
      "arguments": [
        "4"
      ],
      "rpc": "https://polygon-mumbai.infura.io/v3/042a74c34b3c40c4a79f5d0ba944298b",
      "transaction": {
        "type": "0x00",
        "from": "0x0e7de56cbf04719f5910e845885eb925a1cc39e0",
        "to": "0xa6c542a5736e501c3be47657a621dd563fa1c8e3",
        "gas": "0x11311",
        "value": "0x0",
        "data": "0xa0712d680000000000000000000000000000000000000000000000000000000000000004",
        "nonce": "0x1e"
      },
      "additionalContracts": []
    },
    {
      "hash": "0xc4cba0c3efde96503c9166c7656566dd5dbbf0f496cb6d35fa2158c5751c81cc",
      "transactionType": "CALL",
      "contractName": "MockRoyaltyToken",
      "contractAddress": "0xa6C542A5736E501c3bE47657A621dd563FA1c8E3",
      "function": "mint(uint256)",
      "arguments": [
        "5"
      ],
      "rpc": "https://polygon-mumbai.infura.io/v3/042a74c34b3c40c4a79f5d0ba944298b",
      "transaction": {
        "type": "0x00",
        "from": "0x0e7de56cbf04719f5910e845885eb925a1cc39e0",
        "to": "0xa6c542a5736e501c3be47657a621dd563fa1c8e3",
        "gas": "0x11311",
        "value": "0x0",
        "data": "0xa0712d680000000000000000000000000000000000000000000000000000000000000005",
        "nonce": "0x1f"
      },
      "additionalContracts": []
    },
    {
      "hash": "0x0263131d9aa1e9a8253554b95a4666fba0cc1c0b5a8b07949a1dcd11200f07b7",
      "transactionType": "CALL",
      "contractName": "MockRoyaltyToken",
      "contractAddress": "0xa6C542A5736E501c3bE47657A621dd563FA1c8E3",
      "function": "mint(uint256)",
      "arguments": [
        "6"
      ],
      "rpc": "https://polygon-mumbai.infura.io/v3/042a74c34b3c40c4a79f5d0ba944298b",
      "transaction": {
        "type": "0x00",
        "from": "0x0e7de56cbf04719f5910e845885eb925a1cc39e0",
        "to": "0xa6c542a5736e501c3be47657a621dd563fa1c8e3",
        "gas": "0x11311",
        "value": "0x0",
        "data": "0xa0712d680000000000000000000000000000000000000000000000000000000000000006",
        "nonce": "0x20"
      },
      "additionalContracts": []
    },
    {
      "hash": "0x24dd94c86438c2ea0e02f66153d90afe9216166eb66cabfff3ad726ca6045a00",
      "transactionType": "CALL",
      "contractName": "MockRoyaltyToken",
      "contractAddress": "0xa6C542A5736E501c3bE47657A621dd563FA1c8E3",
      "function": "mint(uint256)",
      "arguments": [
        "7"
      ],
      "rpc": "https://polygon-mumbai.infura.io/v3/042a74c34b3c40c4a79f5d0ba944298b",
      "transaction": {
        "type": "0x00",
        "from": "0x0e7de56cbf04719f5910e845885eb925a1cc39e0",
        "to": "0xa6c542a5736e501c3be47657a621dd563fa1c8e3",
        "gas": "0x11311",
        "value": "0x0",
        "data": "0xa0712d680000000000000000000000000000000000000000000000000000000000000007",
        "nonce": "0x21"
      },
      "additionalContracts": []
    },
    {
      "hash": "0x48852aa51c9aaeaa81806004be338fa9a2afb3b78b2c805f1d4ef98340e2a051",
      "transactionType": "CALL",
      "contractName": "MockRoyaltyToken",
      "contractAddress": "0xa6C542A5736E501c3bE47657A621dd563FA1c8E3",
      "function": "mint(uint256)",
      "arguments": [
        "8"
      ],
      "rpc": "https://polygon-mumbai.infura.io/v3/042a74c34b3c40c4a79f5d0ba944298b",
      "transaction": {
        "type": "0x00",
        "from": "0x0e7de56cbf04719f5910e845885eb925a1cc39e0",
        "to": "0xa6c542a5736e501c3be47657a621dd563fa1c8e3",
        "gas": "0x11311",
        "value": "0x0",
        "data": "0xa0712d680000000000000000000000000000000000000000000000000000000000000008",
        "nonce": "0x22"
      },
      "additionalContracts": []
    },
    {
      "hash": "0x52cd9c979f755f1a125db2e40e807f7ee1a5ec2c092a9fae17487354567b259a",
      "transactionType": "CALL",
      "contractName": "MockRoyaltyToken",
      "contractAddress": "0xa6C542A5736E501c3bE47657A621dd563FA1c8E3",
      "function": "mint(uint256)",
      "arguments": [
        "9"
      ],
      "rpc": "https://polygon-mumbai.infura.io/v3/042a74c34b3c40c4a79f5d0ba944298b",
      "transaction": {
        "type": "0x00",
        "from": "0x0e7de56cbf04719f5910e845885eb925a1cc39e0",
        "to": "0xa6c542a5736e501c3be47657a621dd563fa1c8e3",
        "gas": "0x11311",
        "value": "0x0",
        "data": "0xa0712d680000000000000000000000000000000000000000000000000000000000000009",
        "nonce": "0x23"
      },
      "additionalContracts": []
    },
    {
      "hash": "0x02d8a02ffc4066041f9c130599711c2fa9742444f890786e57e302d46a1e948a",
      "transactionType": "CALL",
      "contractName": "MockRoyaltyToken",
      "contractAddress": "0xa6C542A5736E501c3bE47657A621dd563FA1c8E3",
      "function": "mint(uint256)",
      "arguments": [
        "10"
      ],
      "rpc": "https://polygon-mumbai.infura.io/v3/042a74c34b3c40c4a79f5d0ba944298b",
      "transaction": {
        "type": "0x00",
        "from": "0x0e7de56cbf04719f5910e845885eb925a1cc39e0",
        "to": "0xa6c542a5736e501c3be47657a621dd563fa1c8e3",
        "gas": "0x11311",
        "value": "0x0",
        "data": "0xa0712d68000000000000000000000000000000000000000000000000000000000000000a",
        "nonce": "0x24"
      },
      "additionalContracts": []
    },
    {
      "hash": "0x5c05548b9ee7165d85c79fbfb3bb1ccfca63d8d0c41450b7dbdf516e68a0455b",
      "transactionType": "CALL",
      "contractName": "MockRoyaltyToken",
      "contractAddress": "0xa6C542A5736E501c3bE47657A621dd563FA1c8E3",
      "function": "mint(uint256)",
      "arguments": [
        "11"
      ],
      "rpc": "https://polygon-mumbai.infura.io/v3/042a74c34b3c40c4a79f5d0ba944298b",
      "transaction": {
        "type": "0x00",
        "from": "0x0e7de56cbf04719f5910e845885eb925a1cc39e0",
        "to": "0xa6c542a5736e501c3be47657a621dd563fa1c8e3",
        "gas": "0x11311",
        "value": "0x0",
        "data": "0xa0712d68000000000000000000000000000000000000000000000000000000000000000b",
        "nonce": "0x25"
      },
      "additionalContracts": []
    },
    {
      "hash": "0x9bd2c1357f00c5c556837a8bfaf79337a1053519acb034bb16515b575561e118",
      "transactionType": "CALL",
      "contractName": "MockRoyaltyToken",
      "contractAddress": "0xa6C542A5736E501c3bE47657A621dd563FA1c8E3",
      "function": "mint(uint256)",
      "arguments": [
        "12"
      ],
      "rpc": "https://polygon-mumbai.infura.io/v3/042a74c34b3c40c4a79f5d0ba944298b",
      "transaction": {
        "type": "0x00",
        "from": "0x0e7de56cbf04719f5910e845885eb925a1cc39e0",
        "to": "0xa6c542a5736e501c3be47657a621dd563fa1c8e3",
        "gas": "0x11311",
        "value": "0x0",
        "data": "0xa0712d68000000000000000000000000000000000000000000000000000000000000000c",
        "nonce": "0x26"
      },
      "additionalContracts": []
    },
    {
      "hash": "0x80eb51b7f0b7cdc8993ef2a72baeffd6319cfdcf346f519674b20e6a20a0fd7c",
      "transactionType": "CALL",
      "contractName": "MockRoyaltyToken",
      "contractAddress": "0xa6C542A5736E501c3bE47657A621dd563FA1c8E3",
      "function": "mint(uint256)",
      "arguments": [
        "13"
      ],
      "rpc": "https://polygon-mumbai.infura.io/v3/042a74c34b3c40c4a79f5d0ba944298b",
      "transaction": {
        "type": "0x00",
        "from": "0x0e7de56cbf04719f5910e845885eb925a1cc39e0",
        "to": "0xa6c542a5736e501c3be47657a621dd563fa1c8e3",
        "gas": "0x11311",
        "value": "0x0",
        "data": "0xa0712d68000000000000000000000000000000000000000000000000000000000000000d",
        "nonce": "0x27"
      },
      "additionalContracts": []
    },
    {
      "hash": "0xf2460f1af0ee61abb0c8ce565c6f6000580e11d2bf56e58190a6172583cc0ff6",
      "transactionType": "CALL",
      "contractName": "MockRoyaltyToken",
      "contractAddress": "0xa6C542A5736E501c3bE47657A621dd563FA1c8E3",
      "function": "mint(uint256)",
      "arguments": [
        "14"
      ],
      "rpc": "https://polygon-mumbai.infura.io/v3/042a74c34b3c40c4a79f5d0ba944298b",
      "transaction": {
        "type": "0x00",
        "from": "0x0e7de56cbf04719f5910e845885eb925a1cc39e0",
        "to": "0xa6c542a5736e501c3be47657a621dd563fa1c8e3",
        "gas": "0x11311",
        "value": "0x0",
        "data": "0xa0712d68000000000000000000000000000000000000000000000000000000000000000e",
        "nonce": "0x28"
      },
      "additionalContracts": []
    },
    {
      "hash": "0x8473793a0d84d49ab2c48582bcae13aa5a0118a24b835f1ce865b2a55ac22abc",
      "transactionType": "CALL",
      "contractName": "MockRoyaltyToken",
      "contractAddress": "0xa6C542A5736E501c3bE47657A621dd563FA1c8E3",
      "function": "mint(uint256)",
      "arguments": [
        "15"
      ],
      "rpc": "https://polygon-mumbai.infura.io/v3/042a74c34b3c40c4a79f5d0ba944298b",
      "transaction": {
        "type": "0x00",
        "from": "0x0e7de56cbf04719f5910e845885eb925a1cc39e0",
        "to": "0xa6c542a5736e501c3be47657a621dd563fa1c8e3",
        "gas": "0x11311",
        "value": "0x0",
        "data": "0xa0712d68000000000000000000000000000000000000000000000000000000000000000f",
        "nonce": "0x29"
      },
      "additionalContracts": []
    },
    {
      "hash": "0xd5c11d65b08e1185ce9eb9800d175003eaf2d41024c1ec90df130904c6ff55e6",
      "transactionType": "CALL",
      "contractName": "MockRoyaltyToken",
      "contractAddress": "0xa6C542A5736E501c3bE47657A621dd563FA1c8E3",
      "function": "mint(uint256)",
      "arguments": [
        "16"
      ],
      "rpc": "https://polygon-mumbai.infura.io/v3/042a74c34b3c40c4a79f5d0ba944298b",
      "transaction": {
        "type": "0x00",
        "from": "0x0e7de56cbf04719f5910e845885eb925a1cc39e0",
        "to": "0xa6c542a5736e501c3be47657a621dd563fa1c8e3",
        "gas": "0x11311",
        "value": "0x0",
        "data": "0xa0712d680000000000000000000000000000000000000000000000000000000000000010",
        "nonce": "0x2a"
      },
      "additionalContracts": []
    },
    {
      "hash": "0x3c87cb9528792d8ffcac7ac25ecc0135e38840dec9b640db342f87ad0d7ceda7",
      "transactionType": "CALL",
      "contractName": "MockRoyaltyToken",
      "contractAddress": "0xa6C542A5736E501c3bE47657A621dd563FA1c8E3",
      "function": "mint(uint256)",
      "arguments": [
        "17"
      ],
      "rpc": "https://polygon-mumbai.infura.io/v3/042a74c34b3c40c4a79f5d0ba944298b",
      "transaction": {
        "type": "0x00",
        "from": "0x0e7de56cbf04719f5910e845885eb925a1cc39e0",
        "to": "0xa6c542a5736e501c3be47657a621dd563fa1c8e3",
        "gas": "0x11311",
        "value": "0x0",
        "data": "0xa0712d680000000000000000000000000000000000000000000000000000000000000011",
        "nonce": "0x2b"
      },
      "additionalContracts": []
    },
    {
      "hash": "0xce48f9e359abc82bf92b01d5a8d2a5bea7c809b20223d2b2de9e3241b34378d7",
      "transactionType": "CALL",
      "contractName": "MockRoyaltyToken",
      "contractAddress": "0xa6C542A5736E501c3bE47657A621dd563FA1c8E3",
      "function": "mint(uint256)",
      "arguments": [
        "18"
      ],
      "rpc": "https://polygon-mumbai.infura.io/v3/042a74c34b3c40c4a79f5d0ba944298b",
      "transaction": {
        "type": "0x00",
        "from": "0x0e7de56cbf04719f5910e845885eb925a1cc39e0",
        "to": "0xa6c542a5736e501c3be47657a621dd563fa1c8e3",
        "gas": "0x11311",
        "value": "0x0",
        "data": "0xa0712d680000000000000000000000000000000000000000000000000000000000000012",
        "nonce": "0x2c"
      },
      "additionalContracts": []
    },
    {
      "hash": "0xa22c67430e0c7bb00880e369362fc4902548b8a73f456e4a75bc056cfc2dfba3",
      "transactionType": "CALL",
      "contractName": "MockRoyaltyToken",
      "contractAddress": "0xa6C542A5736E501c3bE47657A621dd563FA1c8E3",
      "function": "mint(uint256)",
      "arguments": [
        "19"
      ],
      "rpc": "https://polygon-mumbai.infura.io/v3/042a74c34b3c40c4a79f5d0ba944298b",
      "transaction": {
        "type": "0x00",
        "from": "0x0e7de56cbf04719f5910e845885eb925a1cc39e0",
        "to": "0xa6c542a5736e501c3be47657a621dd563fa1c8e3",
        "gas": "0x11311",
        "value": "0x0",
        "data": "0xa0712d680000000000000000000000000000000000000000000000000000000000000013",
        "nonce": "0x2d"
      },
      "additionalContracts": []
    }
  ],
  "receipts": [
    {
      "transactionHash": "0x66c6f437f58a7bcba360db72f3ca7230c823fd857a5464617dcec7d7499c0a40",
      "transactionIndex": "0x3",
      "blockHash": "0xb1926b874545353e6017ff8880451d387874cb623f41c92b1fa392cecec7568b",
      "blockNumber": "0x1f28831",
      "from": "0x0E7De56cbF04719f5910E845885Eb925a1cc39E0",
      "to": null,
      "cumulativeGasUsed": "0x5028f",
      "gasUsed": "0x275ef",
      "contractAddress": "0xF1A6152858Bd932e36BD18218754635794EB4Cd6",
      "logs": [
        {
          "address": "0x0000000000000000000000000000000000001010",
          "topics": [
            "0x4dfe1bbbcf077ddc3e01291eea2d5c70c2b422b415d95645b9adcfd678cb1d63",
            "0x0000000000000000000000000000000000000000000000000000000000001010",
            "0x0000000000000000000000000e7de56cbf04719f5910e845885eb925a1cc39e0",
            "0x000000000000000000000000c275dc8be39f50d12f66b6a63629c39da5bae5bd"
          ],
          "data": "0x000000000000000000000000000000000000000000000000000193562a2b041e0000000000000000000000000000000000000000000000000c5ecc49fed75cdc000000000000000000000000000000000000000000000e1cc01b10c6ff0ed31a0000000000000000000000000000000000000000000000000c5d38f3d4ac58be000000000000000000000000000000000000000000000e1cc01ca41d2939d738",
          "blockHash": "0xb1926b874545353e6017ff8880451d387874cb623f41c92b1fa392cecec7568b",
          "blockNumber": "0x1f28831",
          "transactionHash": "0x66c6f437f58a7bcba360db72f3ca7230c823fd857a5464617dcec7d7499c0a40",
          "transactionIndex": "0x3",
          "logIndex": "0x6",
          "removed": false
        }
      ],
      "status": "0x1",
      "logsBloom": "0x00000000000000000000000000000000000000000000000000000000000000000000000000000000000000000000000000008000002000000000000000000000000000000000000000000000000000800000000000000020040100000000000000000000000000000000000000000000000000000000000080000000000000000000000000000000000000000000000000000000000000000000000000000000200000000020000000000000000000000000000080000000000040000000004000000000000000000001000000000000000000000000000000100000000000000000000000000000000000000000000000000000000000000000000000100000",
      "type": "0x0",
      "effectiveGasPrice": "0xa3e9abd1"
    },
    {
      "transactionHash": "0x5bd021aa50f5c43c4487bb3be0580cca7f9670c2b8b8a300a7eeead19e1fdc61",
      "transactionIndex": "0x4",
      "blockHash": "0xb1926b874545353e6017ff8880451d387874cb623f41c92b1fa392cecec7568b",
      "blockNumber": "0x1f28831",
      "from": "0x0E7De56cbF04719f5910E845885Eb925a1cc39E0",
      "to": null,
      "cumulativeGasUsed": "0x179863",
      "gasUsed": "0x1295d4",
      "contractAddress": "0xa6C542A5736E501c3bE47657A621dd563FA1c8E3",
      "logs": [
        {
          "address": "0x0000000000000000000000000000000000001010",
          "topics": [
            "0x4dfe1bbbcf077ddc3e01291eea2d5c70c2b422b415d95645b9adcfd678cb1d63",
            "0x0000000000000000000000000000000000000000000000000000000000001010",
            "0x0000000000000000000000000e7de56cbf04719f5910e845885eb925a1cc39e0",
            "0x000000000000000000000000c275dc8be39f50d12f66b6a63629c39da5bae5bd"
          ],
          "data": "0x000000000000000000000000000000000000000000000000000be65cd21e26a80000000000000000000000000000000000000000000000000c5d38f3d4876fbd000000000000000000000000000000000000000000000e1cc01ca41d2939d7380000000000000000000000000000000000000000000000000c51529702694915000000000000000000000000000000000000000000000e1cc0288a79fb57fde0",
          "blockHash": "0xb1926b874545353e6017ff8880451d387874cb623f41c92b1fa392cecec7568b",
          "blockNumber": "0x1f28831",
          "transactionHash": "0x5bd021aa50f5c43c4487bb3be0580cca7f9670c2b8b8a300a7eeead19e1fdc61",
          "transactionIndex": "0x4",
          "logIndex": "0x7",
          "removed": false
        }
      ],
      "status": "0x1",
      "logsBloom": "0x00000000000000000000000000000000000000000000000000000000000000000000000000000000000000000000000000008000002000000000000000000000000000000000000000000000000000800000000000000020040100000000000000000000000000000000000000000000000000000000000080000000000000000000000000000000000000000000000000000000000000000000000000000000200000000020000000000000000000000000000080000000000040000000004000000000000000000001000000000000000000000000000000100000000000000000000000000000000000000000000000000000000000000000000000100000",
      "type": "0x0",
      "effectiveGasPrice": "0xa3e9abd1"
    },
    {
      "transactionHash": "0x52a3f9088299385d70861bcf6f19732dd71714e9a7a97b0e80d8ff2d2719e7f0",
      "transactionIndex": "0x5",
      "blockHash": "0xb1926b874545353e6017ff8880451d387874cb623f41c92b1fa392cecec7568b",
      "blockNumber": "0x1f28831",
      "from": "0x0E7De56cbF04719f5910E845885Eb925a1cc39E0",
      "to": "0xa6C542A5736E501c3bE47657A621dd563FA1c8E3",
      "cumulativeGasUsed": "0x18a248",
      "gasUsed": "0x109e5",
      "contractAddress": null,
      "logs": [
        {
          "address": "0xa6C542A5736E501c3bE47657A621dd563FA1c8E3",
          "topics": [
            "0xddf252ad1be2c89b69c2b068fc378daa952ba7f163c4a11628f55a4df523b3ef",
            "0x0000000000000000000000000000000000000000000000000000000000000000",
            "0x0000000000000000000000000e7de56cbf04719f5910e845885eb925a1cc39e0",
            "0x0000000000000000000000000000000000000000000000000000000000000000"
          ],
          "data": "0x",
          "blockHash": "0xb1926b874545353e6017ff8880451d387874cb623f41c92b1fa392cecec7568b",
          "blockNumber": "0x1f28831",
          "transactionHash": "0x52a3f9088299385d70861bcf6f19732dd71714e9a7a97b0e80d8ff2d2719e7f0",
          "transactionIndex": "0x5",
          "logIndex": "0x8",
          "removed": false
        },
        {
          "address": "0x0000000000000000000000000000000000001010",
          "topics": [
            "0x4dfe1bbbcf077ddc3e01291eea2d5c70c2b422b415d95645b9adcfd678cb1d63",
            "0x0000000000000000000000000000000000000000000000000000000000001010",
            "0x0000000000000000000000000e7de56cbf04719f5910e845885eb925a1cc39e0",
            "0x000000000000000000000000c275dc8be39f50d12f66b6a63629c39da5bae5bd"
          ],
          "data": "0x0000000000000000000000000000000000000000000000000000aa3f82d2768a0000000000000000000000000000000000000000000000000c515297015281a9000000000000000000000000000000000000000000000e1cc0288a79fb57fde00000000000000000000000000000000000000000000000000c50a8577e800b1f000000000000000000000000000000000000000000000e1cc02934b97e2a746a",
          "blockHash": "0xb1926b874545353e6017ff8880451d387874cb623f41c92b1fa392cecec7568b",
          "blockNumber": "0x1f28831",
          "transactionHash": "0x52a3f9088299385d70861bcf6f19732dd71714e9a7a97b0e80d8ff2d2719e7f0",
          "transactionIndex": "0x5",
          "logIndex": "0x9",
          "removed": false
        }
      ],
      "status": "0x1",
      "logsBloom": "0x00000000000000000000000000000000000000000000000000000000000000000000000000000000000000000000000000008000002000000000000000000000004000000000000000000008000004800000000000000020040100000000000000000000020000000000000000100800000000000000000080000010000000000000000000000000000000000000000000000000000000000000000000000000200000000020000000000000000000000000000080000000000040000000004000000002000000000001000000000000000000000000000000100000000020000000000000000000000000000000000000000000000000000000000000100000",
      "type": "0x0",
      "effectiveGasPrice": "0xa3e9abd1"
    },
    {
      "transactionHash": "0x706bd8023065b522c94ebd940257acca50ec24742e056d96aae937fd9eb8e4f7",
      "transactionIndex": "0x6",
      "blockHash": "0xb1926b874545353e6017ff8880451d387874cb623f41c92b1fa392cecec7568b",
      "blockNumber": "0x1f28831",
      "from": "0x0E7De56cbF04719f5910E845885Eb925a1cc39E0",
      "to": "0xa6C542A5736E501c3bE47657A621dd563FA1c8E3",
      "cumulativeGasUsed": "0x19696d",
      "gasUsed": "0xc725",
      "contractAddress": null,
      "logs": [
        {
          "address": "0xa6C542A5736E501c3bE47657A621dd563FA1c8E3",
          "topics": [
            "0xddf252ad1be2c89b69c2b068fc378daa952ba7f163c4a11628f55a4df523b3ef",
            "0x0000000000000000000000000000000000000000000000000000000000000000",
            "0x0000000000000000000000000e7de56cbf04719f5910e845885eb925a1cc39e0",
            "0x0000000000000000000000000000000000000000000000000000000000000001"
          ],
          "data": "0x",
          "blockHash": "0xb1926b874545353e6017ff8880451d387874cb623f41c92b1fa392cecec7568b",
          "blockNumber": "0x1f28831",
          "transactionHash": "0x706bd8023065b522c94ebd940257acca50ec24742e056d96aae937fd9eb8e4f7",
          "transactionIndex": "0x6",
          "logIndex": "0xa",
          "removed": false
        },
        {
          "address": "0x0000000000000000000000000000000000001010",
          "topics": [
            "0x4dfe1bbbcf077ddc3e01291eea2d5c70c2b422b415d95645b9adcfd678cb1d63",
            "0x0000000000000000000000000000000000000000000000000000000000001010",
            "0x0000000000000000000000000e7de56cbf04719f5910e845885eb925a1cc39e0",
            "0x000000000000000000000000c275dc8be39f50d12f66b6a63629c39da5bae5bd"
          ],
          "data": "0x00000000000000000000000000000000000000000000000000007f825549a10a0000000000000000000000000000000000000000000000000c50a8577e7076b4000000000000000000000000000000000000000000000e1cc02934b97e2a746a0000000000000000000000000000000000000000000000000c5028d52926d5aa000000000000000000000000000000000000000000000e1cc029b43bd3741574",
          "blockHash": "0xb1926b874545353e6017ff8880451d387874cb623f41c92b1fa392cecec7568b",
          "blockNumber": "0x1f28831",
          "transactionHash": "0x706bd8023065b522c94ebd940257acca50ec24742e056d96aae937fd9eb8e4f7",
          "transactionIndex": "0x6",
          "logIndex": "0xb",
          "removed": false
        }
      ],
      "status": "0x1",
      "logsBloom": "0x00000000000000000000000000000000000000000000000000000000000000000000000000000000000000000000000000008000002000000000000000040000004000000000000000000008000004800000000000040020040100000000000000000000020000000000000000100800000000000000000080000010000000000000000000000000000000000000000000000000000000000000000000000000200000000020000000000000000000000000000080000000000040000000004000000002000000000001000000000000000000000000000000100000000060000000000000000000000000000000000000000000000000000000000000100000",
      "type": "0x0",
      "effectiveGasPrice": "0xa3e9abd1"
    },
    {
      "transactionHash": "0x6ae3aa33d01e0c11cfecae21d982f3a930f2ac9691ead0d308d139644db8d6b2",
      "transactionIndex": "0x7",
      "blockHash": "0xb1926b874545353e6017ff8880451d387874cb623f41c92b1fa392cecec7568b",
      "blockNumber": "0x1f28831",
      "from": "0x0E7De56cbF04719f5910E845885Eb925a1cc39E0",
      "to": "0xa6C542A5736E501c3bE47657A621dd563FA1c8E3",
      "cumulativeGasUsed": "0x1a3092",
      "gasUsed": "0xc725",
      "contractAddress": null,
      "logs": [
        {
          "address": "0xa6C542A5736E501c3bE47657A621dd563FA1c8E3",
          "topics": [
            "0xddf252ad1be2c89b69c2b068fc378daa952ba7f163c4a11628f55a4df523b3ef",
            "0x0000000000000000000000000000000000000000000000000000000000000000",
            "0x0000000000000000000000000e7de56cbf04719f5910e845885eb925a1cc39e0",
            "0x0000000000000000000000000000000000000000000000000000000000000002"
          ],
          "data": "0x",
          "blockHash": "0xb1926b874545353e6017ff8880451d387874cb623f41c92b1fa392cecec7568b",
          "blockNumber": "0x1f28831",
          "transactionHash": "0x6ae3aa33d01e0c11cfecae21d982f3a930f2ac9691ead0d308d139644db8d6b2",
          "transactionIndex": "0x7",
          "logIndex": "0xc",
          "removed": false
        },
        {
          "address": "0x0000000000000000000000000000000000001010",
          "topics": [
            "0x4dfe1bbbcf077ddc3e01291eea2d5c70c2b422b415d95645b9adcfd678cb1d63",
            "0x0000000000000000000000000000000000000000000000000000000000001010",
            "0x0000000000000000000000000e7de56cbf04719f5910e845885eb925a1cc39e0",
            "0x000000000000000000000000c275dc8be39f50d12f66b6a63629c39da5bae5bd"
          ],
          "data": "0x00000000000000000000000000000000000000000000000000007f825549a10a0000000000000000000000000000000000000000000000000c5028d5291b2a7f000000000000000000000000000000000000000000000e1cc029b43bd37415740000000000000000000000000000000000000000000000000c4fa952d3d18975000000000000000000000000000000000000000000000e1cc02a33be28bdb67e",
          "blockHash": "0xb1926b874545353e6017ff8880451d387874cb623f41c92b1fa392cecec7568b",
          "blockNumber": "0x1f28831",
          "transactionHash": "0x6ae3aa33d01e0c11cfecae21d982f3a930f2ac9691ead0d308d139644db8d6b2",
          "transactionIndex": "0x7",
          "logIndex": "0xd",
          "removed": false
        }
      ],
      "status": "0x1",
      "logsBloom": "0x04000000000000000000000000000000000000000000000000000000000000000000000000000000000000000000000000008000002000000000000000000000004000000000000000000008000004800000000000000020040100000000000000000000020000000000000000100800000000000000000080000010000000000000000000000000000000000000000000000000000000000000000000000000200000000020000000000100000000000000000080000000000040000000004000000002000000000001000000000000000000000000000000100000000020000000000000000000000000000000000000000000008000000000000000100000",
      "type": "0x0",
      "effectiveGasPrice": "0xa3e9abd1"
    },
    {
      "transactionHash": "0x17af8cb69470d8ec67a0a54b4861976b486e87fb2615742dfccc7cdbce594c65",
      "transactionIndex": "0x8",
      "blockHash": "0xb1926b874545353e6017ff8880451d387874cb623f41c92b1fa392cecec7568b",
      "blockNumber": "0x1f28831",
      "from": "0x0E7De56cbF04719f5910E845885Eb925a1cc39E0",
      "to": "0xa6C542A5736E501c3bE47657A621dd563FA1c8E3",
      "cumulativeGasUsed": "0x1af7b7",
      "gasUsed": "0xc725",
      "contractAddress": null,
      "logs": [
        {
          "address": "0xa6C542A5736E501c3bE47657A621dd563FA1c8E3",
          "topics": [
            "0xddf252ad1be2c89b69c2b068fc378daa952ba7f163c4a11628f55a4df523b3ef",
            "0x0000000000000000000000000000000000000000000000000000000000000000",
            "0x0000000000000000000000000e7de56cbf04719f5910e845885eb925a1cc39e0",
            "0x0000000000000000000000000000000000000000000000000000000000000003"
          ],
          "data": "0x",
          "blockHash": "0xb1926b874545353e6017ff8880451d387874cb623f41c92b1fa392cecec7568b",
          "blockNumber": "0x1f28831",
          "transactionHash": "0x17af8cb69470d8ec67a0a54b4861976b486e87fb2615742dfccc7cdbce594c65",
          "transactionIndex": "0x8",
          "logIndex": "0xe",
          "removed": false
        },
        {
          "address": "0x0000000000000000000000000000000000001010",
          "topics": [
            "0x4dfe1bbbcf077ddc3e01291eea2d5c70c2b422b415d95645b9adcfd678cb1d63",
            "0x0000000000000000000000000000000000000000000000000000000000001010",
            "0x0000000000000000000000000e7de56cbf04719f5910e845885eb925a1cc39e0",
            "0x000000000000000000000000c275dc8be39f50d12f66b6a63629c39da5bae5bd"
          ],
          "data": "0x00000000000000000000000000000000000000000000000000007f825549a10a0000000000000000000000000000000000000000000000000c4fa952d3c5de4a000000000000000000000000000000000000000000000e1cc02a33be28bdb67e0000000000000000000000000000000000000000000000000c4f29d07e7c3d40000000000000000000000000000000000000000000000e1cc02ab3407e075788",
          "blockHash": "0xb1926b874545353e6017ff8880451d387874cb623f41c92b1fa392cecec7568b",
          "blockNumber": "0x1f28831",
          "transactionHash": "0x17af8cb69470d8ec67a0a54b4861976b486e87fb2615742dfccc7cdbce594c65",
          "transactionIndex": "0x8",
          "logIndex": "0xf",
          "removed": false
        }
      ],
      "status": "0x1",
      "logsBloom": "0x00000000000000000000000000000000000000000000000000000000000000000000000000000000000000000000000000008000022000000000000000000000004000000000000000000008000004800000000000000020040100000000000000000000020000000000000000100800000000000000000080000010000000000000000000000000000000000000000000000000000000000000000000000000200000000020000000000000000000000000000080800000000040000000404000000002000000000001000000000000000000000000000000100000000020000000000000000000000000000000000000000000000000000000000000100000",
      "type": "0x0",
      "effectiveGasPrice": "0xa3e9abd1"
    },
    {
      "transactionHash": "0x82ddda3b3706343549a788ef5ad9ba4911a6a315c65fb8d14943fe64ef8d6391",
      "transactionIndex": "0x9",
      "blockHash": "0xb1926b874545353e6017ff8880451d387874cb623f41c92b1fa392cecec7568b",
      "blockNumber": "0x1f28831",
      "from": "0x0E7De56cbF04719f5910E845885Eb925a1cc39E0",
      "to": "0xa6C542A5736E501c3bE47657A621dd563FA1c8E3",
      "cumulativeGasUsed": "0x1bbedc",
      "gasUsed": "0xc725",
      "contractAddress": null,
      "logs": [
        {
          "address": "0xa6C542A5736E501c3bE47657A621dd563FA1c8E3",
          "topics": [
            "0xddf252ad1be2c89b69c2b068fc378daa952ba7f163c4a11628f55a4df523b3ef",
            "0x0000000000000000000000000000000000000000000000000000000000000000",
            "0x0000000000000000000000000e7de56cbf04719f5910e845885eb925a1cc39e0",
            "0x0000000000000000000000000000000000000000000000000000000000000004"
          ],
          "data": "0x",
          "blockHash": "0xb1926b874545353e6017ff8880451d387874cb623f41c92b1fa392cecec7568b",
          "blockNumber": "0x1f28831",
          "transactionHash": "0x82ddda3b3706343549a788ef5ad9ba4911a6a315c65fb8d14943fe64ef8d6391",
          "transactionIndex": "0x9",
          "logIndex": "0x10",
          "removed": false
        },
        {
          "address": "0x0000000000000000000000000000000000001010",
          "topics": [
            "0x4dfe1bbbcf077ddc3e01291eea2d5c70c2b422b415d95645b9adcfd678cb1d63",
            "0x0000000000000000000000000000000000000000000000000000000000001010",
            "0x0000000000000000000000000e7de56cbf04719f5910e845885eb925a1cc39e0",
            "0x000000000000000000000000c275dc8be39f50d12f66b6a63629c39da5bae5bd"
          ],
          "data": "0x00000000000000000000000000000000000000000000000000007f825549a10a0000000000000000000000000000000000000000000000000c4f29d07e709215000000000000000000000000000000000000000000000e1cc02ab3407e0757880000000000000000000000000000000000000000000000000c4eaa4e2926f10b000000000000000000000000000000000000000000000e1cc02b32c2d350f892",
          "blockHash": "0xb1926b874545353e6017ff8880451d387874cb623f41c92b1fa392cecec7568b",
          "blockNumber": "0x1f28831",
          "transactionHash": "0x82ddda3b3706343549a788ef5ad9ba4911a6a315c65fb8d14943fe64ef8d6391",
          "transactionIndex": "0x9",
          "logIndex": "0x11",
          "removed": false
        }
      ],
      "status": "0x1",
      "logsBloom": "0x00000000000000000000000000000000000000000000000000000000000000000000000000000000000000000000000000008000002000000000000000000000004000000000000000000008000004800000000000000020040100000000000008000000020000000000000000100800000000000000000080000010000000000000000000000000000000000000000000000000000000000000000000000000200000000020000000000000000000000000000080000000002040000000004000000002000000000001000000000000000000008000000000100000000020000000000000000000000000000000000000000000000000000000000000100000",
      "type": "0x0",
      "effectiveGasPrice": "0xa3e9abd1"
    },
    {
      "transactionHash": "0xc4cba0c3efde96503c9166c7656566dd5dbbf0f496cb6d35fa2158c5751c81cc",
      "transactionIndex": "0xa",
      "blockHash": "0xb1926b874545353e6017ff8880451d387874cb623f41c92b1fa392cecec7568b",
      "blockNumber": "0x1f28831",
      "from": "0x0E7De56cbF04719f5910E845885Eb925a1cc39E0",
      "to": "0xa6C542A5736E501c3bE47657A621dd563FA1c8E3",
      "cumulativeGasUsed": "0x1c8601",
      "gasUsed": "0xc725",
      "contractAddress": null,
      "logs": [
        {
          "address": "0xa6C542A5736E501c3bE47657A621dd563FA1c8E3",
          "topics": [
            "0xddf252ad1be2c89b69c2b068fc378daa952ba7f163c4a11628f55a4df523b3ef",
            "0x0000000000000000000000000000000000000000000000000000000000000000",
            "0x0000000000000000000000000e7de56cbf04719f5910e845885eb925a1cc39e0",
            "0x0000000000000000000000000000000000000000000000000000000000000005"
          ],
          "data": "0x",
          "blockHash": "0xb1926b874545353e6017ff8880451d387874cb623f41c92b1fa392cecec7568b",
          "blockNumber": "0x1f28831",
          "transactionHash": "0xc4cba0c3efde96503c9166c7656566dd5dbbf0f496cb6d35fa2158c5751c81cc",
          "transactionIndex": "0xa",
          "logIndex": "0x12",
          "removed": false
        },
        {
          "address": "0x0000000000000000000000000000000000001010",
          "topics": [
            "0x4dfe1bbbcf077ddc3e01291eea2d5c70c2b422b415d95645b9adcfd678cb1d63",
            "0x0000000000000000000000000000000000000000000000000000000000001010",
            "0x0000000000000000000000000e7de56cbf04719f5910e845885eb925a1cc39e0",
            "0x000000000000000000000000c275dc8be39f50d12f66b6a63629c39da5bae5bd"
          ],
          "data": "0x00000000000000000000000000000000000000000000000000007f825549a10a0000000000000000000000000000000000000000000000000c4eaa4e291b45e0000000000000000000000000000000000000000000000e1cc02b32c2d350f8920000000000000000000000000000000000000000000000000c4e2acbd3d1a4d6000000000000000000000000000000000000000000000e1cc02bb245289a999c",
          "blockHash": "0xb1926b874545353e6017ff8880451d387874cb623f41c92b1fa392cecec7568b",
          "blockNumber": "0x1f28831",
          "transactionHash": "0xc4cba0c3efde96503c9166c7656566dd5dbbf0f496cb6d35fa2158c5751c81cc",
          "transactionIndex": "0xa",
          "logIndex": "0x13",
          "removed": false
        }
      ],
      "status": "0x1",
      "logsBloom": "0x00000000000000000000000000000000000000000000000000000000000000000000000000000000000000000000000000008000002000000000000000000000004010000000000000000008000004800000000000000020040100000000000000000000020000000000000000100800000000000000000080000010000000000000000000000000000000000000001000000800000000000000000000000000200000000020000000000000000000000000000080000000000040000000004000000002000000000001000000000000000000000000000000100000000020000000000000000000000000000000000000000000000000000000000000100000",
      "type": "0x0",
      "effectiveGasPrice": "0xa3e9abd1"
    },
    {
      "transactionHash": "0x0263131d9aa1e9a8253554b95a4666fba0cc1c0b5a8b07949a1dcd11200f07b7",
      "transactionIndex": "0xb",
      "blockHash": "0xb1926b874545353e6017ff8880451d387874cb623f41c92b1fa392cecec7568b",
      "blockNumber": "0x1f28831",
      "from": "0x0E7De56cbF04719f5910E845885Eb925a1cc39E0",
      "to": "0xa6C542A5736E501c3bE47657A621dd563FA1c8E3",
      "cumulativeGasUsed": "0x1d4d26",
      "gasUsed": "0xc725",
      "contractAddress": null,
      "logs": [
        {
          "address": "0xa6C542A5736E501c3bE47657A621dd563FA1c8E3",
          "topics": [
            "0xddf252ad1be2c89b69c2b068fc378daa952ba7f163c4a11628f55a4df523b3ef",
            "0x0000000000000000000000000000000000000000000000000000000000000000",
            "0x0000000000000000000000000e7de56cbf04719f5910e845885eb925a1cc39e0",
            "0x0000000000000000000000000000000000000000000000000000000000000006"
          ],
          "data": "0x",
          "blockHash": "0xb1926b874545353e6017ff8880451d387874cb623f41c92b1fa392cecec7568b",
          "blockNumber": "0x1f28831",
          "transactionHash": "0x0263131d9aa1e9a8253554b95a4666fba0cc1c0b5a8b07949a1dcd11200f07b7",
          "transactionIndex": "0xb",
          "logIndex": "0x14",
          "removed": false
        },
        {
          "address": "0x0000000000000000000000000000000000001010",
          "topics": [
            "0x4dfe1bbbcf077ddc3e01291eea2d5c70c2b422b415d95645b9adcfd678cb1d63",
            "0x0000000000000000000000000000000000000000000000000000000000001010",
            "0x0000000000000000000000000e7de56cbf04719f5910e845885eb925a1cc39e0",
            "0x000000000000000000000000c275dc8be39f50d12f66b6a63629c39da5bae5bd"
          ],
          "data": "0x00000000000000000000000000000000000000000000000000007f825549a10a0000000000000000000000000000000000000000000000000c4e2acbd3c5f9ab000000000000000000000000000000000000000000000e1cc02bb245289a999c0000000000000000000000000000000000000000000000000c4dab497e7c58a1000000000000000000000000000000000000000000000e1cc02c31c77de43aa6",
          "blockHash": "0xb1926b874545353e6017ff8880451d387874cb623f41c92b1fa392cecec7568b",
          "blockNumber": "0x1f28831",
          "transactionHash": "0x0263131d9aa1e9a8253554b95a4666fba0cc1c0b5a8b07949a1dcd11200f07b7",
          "transactionIndex": "0xb",
          "logIndex": "0x15",
          "removed": false
        }
      ],
      "status": "0x1",
      "logsBloom": "0x00000000000000000000000000000000000000000000000000000000000000000000000000000000000000000000000000008000002400000000000000000000004000000000000000000008000004800000000000000020040100000000000000000000020000000000000000100800000000000000000080000010000000000000000400000000000000000000000000000000000000000000000000000000200000000020000000000000000000000000000080000000000040080000004000000002000000000001000000000000000000000000000000100000000020000000000000000000000000000000000000000000000000000000000000100000",
      "type": "0x0",
      "effectiveGasPrice": "0xa3e9abd1"
    },
    {
      "transactionHash": "0x24dd94c86438c2ea0e02f66153d90afe9216166eb66cabfff3ad726ca6045a00",
      "transactionIndex": "0xc",
      "blockHash": "0xb1926b874545353e6017ff8880451d387874cb623f41c92b1fa392cecec7568b",
      "blockNumber": "0x1f28831",
      "from": "0x0E7De56cbF04719f5910E845885Eb925a1cc39E0",
      "to": "0xa6C542A5736E501c3bE47657A621dd563FA1c8E3",
      "cumulativeGasUsed": "0x1e144b",
      "gasUsed": "0xc725",
      "contractAddress": null,
      "logs": [
        {
          "address": "0xa6C542A5736E501c3bE47657A621dd563FA1c8E3",
          "topics": [
            "0xddf252ad1be2c89b69c2b068fc378daa952ba7f163c4a11628f55a4df523b3ef",
            "0x0000000000000000000000000000000000000000000000000000000000000000",
            "0x0000000000000000000000000e7de56cbf04719f5910e845885eb925a1cc39e0",
            "0x0000000000000000000000000000000000000000000000000000000000000007"
          ],
          "data": "0x",
          "blockHash": "0xb1926b874545353e6017ff8880451d387874cb623f41c92b1fa392cecec7568b",
          "blockNumber": "0x1f28831",
          "transactionHash": "0x24dd94c86438c2ea0e02f66153d90afe9216166eb66cabfff3ad726ca6045a00",
          "transactionIndex": "0xc",
          "logIndex": "0x16",
          "removed": false
        },
        {
          "address": "0x0000000000000000000000000000000000001010",
          "topics": [
            "0x4dfe1bbbcf077ddc3e01291eea2d5c70c2b422b415d95645b9adcfd678cb1d63",
            "0x0000000000000000000000000000000000000000000000000000000000001010",
            "0x0000000000000000000000000e7de56cbf04719f5910e845885eb925a1cc39e0",
            "0x000000000000000000000000c275dc8be39f50d12f66b6a63629c39da5bae5bd"
          ],
          "data": "0x00000000000000000000000000000000000000000000000000007f825549a10a0000000000000000000000000000000000000000000000000c4dab497e70ad76000000000000000000000000000000000000000000000e1cc02c31c77de43aa60000000000000000000000000000000000000000000000000c4d2bc729270c6c000000000000000000000000000000000000000000000e1cc02cb149d32ddbb0",
          "blockHash": "0xb1926b874545353e6017ff8880451d387874cb623f41c92b1fa392cecec7568b",
          "blockNumber": "0x1f28831",
          "transactionHash": "0x24dd94c86438c2ea0e02f66153d90afe9216166eb66cabfff3ad726ca6045a00",
          "transactionIndex": "0xc",
          "logIndex": "0x17",
          "removed": false
        }
      ],
      "status": "0x1",
      "logsBloom": "0x00000000000000000000000000000000000000000000000000000000000000000000000000000000000000000000000000009000002000000000000000000000004020000000000000000008000004800000000000000020040100000000000000000000020000000000000000100800000000000000000080000010000000000000000000000000000000000000000000000000000000000000000000000000200000000020000000000000000000000000000080000000000040000000004000000002000000000001000000000000000000000000000000100100000020000000000000000000000000000000000000000000000000000000000000100000",
      "type": "0x0",
      "effectiveGasPrice": "0xa3e9abd1"
    },
    {
      "transactionHash": "0x48852aa51c9aaeaa81806004be338fa9a2afb3b78b2c805f1d4ef98340e2a051",
      "transactionIndex": "0xd",
      "blockHash": "0xb1926b874545353e6017ff8880451d387874cb623f41c92b1fa392cecec7568b",
      "blockNumber": "0x1f28831",
      "from": "0x0E7De56cbF04719f5910E845885Eb925a1cc39E0",
      "to": "0xa6C542A5736E501c3bE47657A621dd563FA1c8E3",
      "cumulativeGasUsed": "0x1edb70",
      "gasUsed": "0xc725",
      "contractAddress": null,
      "logs": [
        {
          "address": "0xa6C542A5736E501c3bE47657A621dd563FA1c8E3",
          "topics": [
            "0xddf252ad1be2c89b69c2b068fc378daa952ba7f163c4a11628f55a4df523b3ef",
            "0x0000000000000000000000000000000000000000000000000000000000000000",
            "0x0000000000000000000000000e7de56cbf04719f5910e845885eb925a1cc39e0",
            "0x0000000000000000000000000000000000000000000000000000000000000008"
          ],
          "data": "0x",
          "blockHash": "0xb1926b874545353e6017ff8880451d387874cb623f41c92b1fa392cecec7568b",
          "blockNumber": "0x1f28831",
          "transactionHash": "0x48852aa51c9aaeaa81806004be338fa9a2afb3b78b2c805f1d4ef98340e2a051",
          "transactionIndex": "0xd",
          "logIndex": "0x18",
          "removed": false
        },
        {
          "address": "0x0000000000000000000000000000000000001010",
          "topics": [
            "0x4dfe1bbbcf077ddc3e01291eea2d5c70c2b422b415d95645b9adcfd678cb1d63",
            "0x0000000000000000000000000000000000000000000000000000000000001010",
            "0x0000000000000000000000000e7de56cbf04719f5910e845885eb925a1cc39e0",
            "0x000000000000000000000000c275dc8be39f50d12f66b6a63629c39da5bae5bd"
          ],
          "data": "0x00000000000000000000000000000000000000000000000000007f825549a10a0000000000000000000000000000000000000000000000000c4d2bc7291b6141000000000000000000000000000000000000000000000e1cc02cb149d32ddbb00000000000000000000000000000000000000000000000000c4cac44d3d1c037000000000000000000000000000000000000000000000e1cc02d30cc28777cba",
          "blockHash": "0xb1926b874545353e6017ff8880451d387874cb623f41c92b1fa392cecec7568b",
          "blockNumber": "0x1f28831",
          "transactionHash": "0x48852aa51c9aaeaa81806004be338fa9a2afb3b78b2c805f1d4ef98340e2a051",
          "transactionIndex": "0xd",
          "logIndex": "0x19",
          "removed": false
        }
      ],
      "status": "0x1",
      "logsBloom": "0x00000000000000000000000000000000000000000000000000000000000000000000000000000000000000000000000000008000002080000000000000000000004000000000000000000008000004800000000000000020040100000000000000000000020000000000000000100800000000000000000080000010000000000080000000000000000000000000000000000000000000000000000000000000200000000020000000000000000000000000000080000000000040000000004040000002000000000001000000000000000000000000000000100000000020000000000000000000000000000000000000000000000000000000000000100000",
      "type": "0x0",
      "effectiveGasPrice": "0xa3e9abd1"
    },
    {
      "transactionHash": "0x52cd9c979f755f1a125db2e40e807f7ee1a5ec2c092a9fae17487354567b259a",
      "transactionIndex": "0xe",
      "blockHash": "0xb1926b874545353e6017ff8880451d387874cb623f41c92b1fa392cecec7568b",
      "blockNumber": "0x1f28831",
      "from": "0x0E7De56cbF04719f5910E845885Eb925a1cc39E0",
      "to": "0xa6C542A5736E501c3bE47657A621dd563FA1c8E3",
      "cumulativeGasUsed": "0x1fa295",
      "gasUsed": "0xc725",
      "contractAddress": null,
      "logs": [
        {
          "address": "0xa6C542A5736E501c3bE47657A621dd563FA1c8E3",
          "topics": [
            "0xddf252ad1be2c89b69c2b068fc378daa952ba7f163c4a11628f55a4df523b3ef",
            "0x0000000000000000000000000000000000000000000000000000000000000000",
            "0x0000000000000000000000000e7de56cbf04719f5910e845885eb925a1cc39e0",
            "0x0000000000000000000000000000000000000000000000000000000000000009"
          ],
          "data": "0x",
          "blockHash": "0xb1926b874545353e6017ff8880451d387874cb623f41c92b1fa392cecec7568b",
          "blockNumber": "0x1f28831",
          "transactionHash": "0x52cd9c979f755f1a125db2e40e807f7ee1a5ec2c092a9fae17487354567b259a",
          "transactionIndex": "0xe",
          "logIndex": "0x1a",
          "removed": false
        },
        {
          "address": "0x0000000000000000000000000000000000001010",
          "topics": [
            "0x4dfe1bbbcf077ddc3e01291eea2d5c70c2b422b415d95645b9adcfd678cb1d63",
            "0x0000000000000000000000000000000000000000000000000000000000001010",
            "0x0000000000000000000000000e7de56cbf04719f5910e845885eb925a1cc39e0",
            "0x000000000000000000000000c275dc8be39f50d12f66b6a63629c39da5bae5bd"
          ],
          "data": "0x00000000000000000000000000000000000000000000000000007f825549a10a0000000000000000000000000000000000000000000000000c4cac44d3c6150c000000000000000000000000000000000000000000000e1cc02d30cc28777cba0000000000000000000000000000000000000000000000000c4c2cc27e7c7402000000000000000000000000000000000000000000000e1cc02db04e7dc11dc4",
          "blockHash": "0xb1926b874545353e6017ff8880451d387874cb623f41c92b1fa392cecec7568b",
          "blockNumber": "0x1f28831",
          "transactionHash": "0x52cd9c979f755f1a125db2e40e807f7ee1a5ec2c092a9fae17487354567b259a",
          "transactionIndex": "0xe",
          "logIndex": "0x1b",
          "removed": false
        }
      ],
      "status": "0x1",
      "logsBloom": "0x00000000000000000000000000000000000000000000000000000000000000000000000000000000000000000000000000008000002000000000000000200000004000000000000000000008000004800000000000000020040100000000000000000000020000000000000000100800000000000000000080000010000000000000000000000000000000000000000000001000000000000000000000000000200000000020000000000000000000000000000080000000000040000000004000000002000000000001000000000000000000000000000000100000000020000000000000000000000000000000000000000000000000000000000000900000",
      "type": "0x0",
      "effectiveGasPrice": "0xa3e9abd1"
    },
    {
      "transactionHash": "0x02d8a02ffc4066041f9c130599711c2fa9742444f890786e57e302d46a1e948a",
      "transactionIndex": "0xf",
      "blockHash": "0xb1926b874545353e6017ff8880451d387874cb623f41c92b1fa392cecec7568b",
      "blockNumber": "0x1f28831",
      "from": "0x0E7De56cbF04719f5910E845885Eb925a1cc39E0",
      "to": "0xa6C542A5736E501c3bE47657A621dd563FA1c8E3",
      "cumulativeGasUsed": "0x2069ba",
      "gasUsed": "0xc725",
      "contractAddress": null,
      "logs": [
        {
          "address": "0xa6C542A5736E501c3bE47657A621dd563FA1c8E3",
          "topics": [
            "0xddf252ad1be2c89b69c2b068fc378daa952ba7f163c4a11628f55a4df523b3ef",
            "0x0000000000000000000000000000000000000000000000000000000000000000",
            "0x0000000000000000000000000e7de56cbf04719f5910e845885eb925a1cc39e0",
            "0x000000000000000000000000000000000000000000000000000000000000000a"
          ],
          "data": "0x",
          "blockHash": "0xb1926b874545353e6017ff8880451d387874cb623f41c92b1fa392cecec7568b",
          "blockNumber": "0x1f28831",
          "transactionHash": "0x02d8a02ffc4066041f9c130599711c2fa9742444f890786e57e302d46a1e948a",
          "transactionIndex": "0xf",
          "logIndex": "0x1c",
          "removed": false
        },
        {
          "address": "0x0000000000000000000000000000000000001010",
          "topics": [
            "0x4dfe1bbbcf077ddc3e01291eea2d5c70c2b422b415d95645b9adcfd678cb1d63",
            "0x0000000000000000000000000000000000000000000000000000000000001010",
            "0x0000000000000000000000000e7de56cbf04719f5910e845885eb925a1cc39e0",
            "0x000000000000000000000000c275dc8be39f50d12f66b6a63629c39da5bae5bd"
          ],
          "data": "0x00000000000000000000000000000000000000000000000000007f825549a10a0000000000000000000000000000000000000000000000000c4c2cc27e70c8d7000000000000000000000000000000000000000000000e1cc02db04e7dc11dc40000000000000000000000000000000000000000000000000c4bad40292727cd000000000000000000000000000000000000000000000e1cc02e2fd0d30abece",
          "blockHash": "0xb1926b874545353e6017ff8880451d387874cb623f41c92b1fa392cecec7568b",
          "blockNumber": "0x1f28831",
          "transactionHash": "0x02d8a02ffc4066041f9c130599711c2fa9742444f890786e57e302d46a1e948a",
          "transactionIndex": "0xf",
          "logIndex": "0x1d",
          "removed": false
        }
      ],
      "status": "0x1",
      "logsBloom": "0x00000000000000000000000000000000000000000000000000000000000000000000000000000000000000000000000000008000042000000020000000000000004000000000000000000008000004800000000000000020040100000000000000000000020000000000000000100800000000000000000080000010000000000000000000000000010000000000000000000000000000000000000000000000200000000020000000000000000000000000000080000000000040000000004000000002000000000001000000000000000000000000000000100000000020000000000000000000000000000000000000000000000000000000000000100000",
      "type": "0x0",
      "effectiveGasPrice": "0xa3e9abd1"
    },
    {
      "transactionHash": "0x5c05548b9ee7165d85c79fbfb3bb1ccfca63d8d0c41450b7dbdf516e68a0455b",
      "transactionIndex": "0x10",
      "blockHash": "0xb1926b874545353e6017ff8880451d387874cb623f41c92b1fa392cecec7568b",
      "blockNumber": "0x1f28831",
      "from": "0x0E7De56cbF04719f5910E845885Eb925a1cc39E0",
      "to": "0xa6C542A5736E501c3bE47657A621dd563FA1c8E3",
      "cumulativeGasUsed": "0x2130df",
      "gasUsed": "0xc725",
      "contractAddress": null,
      "logs": [
        {
          "address": "0xa6C542A5736E501c3bE47657A621dd563FA1c8E3",
          "topics": [
            "0xddf252ad1be2c89b69c2b068fc378daa952ba7f163c4a11628f55a4df523b3ef",
            "0x0000000000000000000000000000000000000000000000000000000000000000",
            "0x0000000000000000000000000e7de56cbf04719f5910e845885eb925a1cc39e0",
            "0x000000000000000000000000000000000000000000000000000000000000000b"
          ],
          "data": "0x",
          "blockHash": "0xb1926b874545353e6017ff8880451d387874cb623f41c92b1fa392cecec7568b",
          "blockNumber": "0x1f28831",
          "transactionHash": "0x5c05548b9ee7165d85c79fbfb3bb1ccfca63d8d0c41450b7dbdf516e68a0455b",
          "transactionIndex": "0x10",
          "logIndex": "0x1e",
          "removed": false
        },
        {
          "address": "0x0000000000000000000000000000000000001010",
          "topics": [
            "0x4dfe1bbbcf077ddc3e01291eea2d5c70c2b422b415d95645b9adcfd678cb1d63",
            "0x0000000000000000000000000000000000000000000000000000000000001010",
            "0x0000000000000000000000000e7de56cbf04719f5910e845885eb925a1cc39e0",
            "0x000000000000000000000000c275dc8be39f50d12f66b6a63629c39da5bae5bd"
          ],
          "data": "0x00000000000000000000000000000000000000000000000000007f825549a10a0000000000000000000000000000000000000000000000000c4bad40291b7ca2000000000000000000000000000000000000000000000e1cc02e2fd0d30abece0000000000000000000000000000000000000000000000000c4b2dbdd3d1db98000000000000000000000000000000000000000000000e1cc02eaf5328545fd8",
          "blockHash": "0xb1926b874545353e6017ff8880451d387874cb623f41c92b1fa392cecec7568b",
          "blockNumber": "0x1f28831",
          "transactionHash": "0x5c05548b9ee7165d85c79fbfb3bb1ccfca63d8d0c41450b7dbdf516e68a0455b",
          "transactionIndex": "0x10",
          "logIndex": "0x1f",
          "removed": false
        }
      ],
      "status": "0x1",
      "logsBloom": "0x00000000000000000000004000000000000000000000000000000000000000000000000000000000000000000000000000008000002000000000000000000000004000000000000000000008000004800000000000000020040100000000000000000000020000000000000000100800000000000000000080000010000000000000000000000000000000000000000000000000000000000000000000000000200000000020000000000000000000000000000080000000000040000000004000000002000000000001000000000000002000000000000000100000000020000000000000000000000000000000000000000000000000040000000000100000",
      "type": "0x0",
      "effectiveGasPrice": "0xa3e9abd1"
    },
    {
      "transactionHash": "0x9bd2c1357f00c5c556837a8bfaf79337a1053519acb034bb16515b575561e118",
      "transactionIndex": "0x11",
      "blockHash": "0xb1926b874545353e6017ff8880451d387874cb623f41c92b1fa392cecec7568b",
      "blockNumber": "0x1f28831",
      "from": "0x0E7De56cbF04719f5910E845885Eb925a1cc39E0",
      "to": "0xa6C542A5736E501c3bE47657A621dd563FA1c8E3",
      "cumulativeGasUsed": "0x21f804",
      "gasUsed": "0xc725",
      "contractAddress": null,
      "logs": [
        {
          "address": "0xa6C542A5736E501c3bE47657A621dd563FA1c8E3",
          "topics": [
            "0xddf252ad1be2c89b69c2b068fc378daa952ba7f163c4a11628f55a4df523b3ef",
            "0x0000000000000000000000000000000000000000000000000000000000000000",
            "0x0000000000000000000000000e7de56cbf04719f5910e845885eb925a1cc39e0",
            "0x000000000000000000000000000000000000000000000000000000000000000c"
          ],
          "data": "0x",
          "blockHash": "0xb1926b874545353e6017ff8880451d387874cb623f41c92b1fa392cecec7568b",
          "blockNumber": "0x1f28831",
          "transactionHash": "0x9bd2c1357f00c5c556837a8bfaf79337a1053519acb034bb16515b575561e118",
          "transactionIndex": "0x11",
          "logIndex": "0x20",
          "removed": false
        },
        {
          "address": "0x0000000000000000000000000000000000001010",
          "topics": [
            "0x4dfe1bbbcf077ddc3e01291eea2d5c70c2b422b415d95645b9adcfd678cb1d63",
            "0x0000000000000000000000000000000000000000000000000000000000001010",
            "0x0000000000000000000000000e7de56cbf04719f5910e845885eb925a1cc39e0",
            "0x000000000000000000000000c275dc8be39f50d12f66b6a63629c39da5bae5bd"
          ],
          "data": "0x00000000000000000000000000000000000000000000000000007f825549a10a0000000000000000000000000000000000000000000000000c4b2dbdd3c6306d000000000000000000000000000000000000000000000e1cc02eaf5328545fd80000000000000000000000000000000000000000000000000c4aae3b7e7c8f63000000000000000000000000000000000000000000000e1cc02f2ed57d9e00e2",
          "blockHash": "0xb1926b874545353e6017ff8880451d387874cb623f41c92b1fa392cecec7568b",
          "blockNumber": "0x1f28831",
          "transactionHash": "0x9bd2c1357f00c5c556837a8bfaf79337a1053519acb034bb16515b575561e118",
          "transactionIndex": "0x11",
          "logIndex": "0x21",
          "removed": false
        }
      ],
      "status": "0x1",
      "logsBloom": "0x00000000000000000000000000000000000002000000000000000000000000000000000000000200000000000000000000008000002000000000000000000000004000000000000000000008000004800000000000000020040100000000000000000000020000000000000000100800000000000000000080000010000000000000000000000000000000000000000000000000000000000000000000000000200000000020000000000000000000000000000080000000000040000000004000000002000000000001000000000000000000000000000000100000000020200000000000000000000000000000000000000000000000000000000000100000",
      "type": "0x0",
      "effectiveGasPrice": "0xa3e9abd1"
    },
    {
      "transactionHash": "0x80eb51b7f0b7cdc8993ef2a72baeffd6319cfdcf346f519674b20e6a20a0fd7c",
      "transactionIndex": "0x12",
      "blockHash": "0xb1926b874545353e6017ff8880451d387874cb623f41c92b1fa392cecec7568b",
      "blockNumber": "0x1f28831",
      "from": "0x0E7De56cbF04719f5910E845885Eb925a1cc39E0",
      "to": "0xa6C542A5736E501c3bE47657A621dd563FA1c8E3",
      "cumulativeGasUsed": "0x22bf29",
      "gasUsed": "0xc725",
      "contractAddress": null,
      "logs": [
        {
          "address": "0xa6C542A5736E501c3bE47657A621dd563FA1c8E3",
          "topics": [
            "0xddf252ad1be2c89b69c2b068fc378daa952ba7f163c4a11628f55a4df523b3ef",
            "0x0000000000000000000000000000000000000000000000000000000000000000",
            "0x0000000000000000000000000e7de56cbf04719f5910e845885eb925a1cc39e0",
            "0x000000000000000000000000000000000000000000000000000000000000000d"
          ],
          "data": "0x",
          "blockHash": "0xb1926b874545353e6017ff8880451d387874cb623f41c92b1fa392cecec7568b",
          "blockNumber": "0x1f28831",
          "transactionHash": "0x80eb51b7f0b7cdc8993ef2a72baeffd6319cfdcf346f519674b20e6a20a0fd7c",
          "transactionIndex": "0x12",
          "logIndex": "0x22",
          "removed": false
        },
        {
          "address": "0x0000000000000000000000000000000000001010",
          "topics": [
            "0x4dfe1bbbcf077ddc3e01291eea2d5c70c2b422b415d95645b9adcfd678cb1d63",
            "0x0000000000000000000000000000000000000000000000000000000000001010",
            "0x0000000000000000000000000e7de56cbf04719f5910e845885eb925a1cc39e0",
            "0x000000000000000000000000c275dc8be39f50d12f66b6a63629c39da5bae5bd"
          ],
          "data": "0x00000000000000000000000000000000000000000000000000007f825549a10a0000000000000000000000000000000000000000000000000c4aae3b7e70e438000000000000000000000000000000000000000000000e1cc02f2ed57d9e00e20000000000000000000000000000000000000000000000000c4a2eb92927432e000000000000000000000000000000000000000000000e1cc02fae57d2e7a1ec",
          "blockHash": "0xb1926b874545353e6017ff8880451d387874cb623f41c92b1fa392cecec7568b",
          "blockNumber": "0x1f28831",
          "transactionHash": "0x80eb51b7f0b7cdc8993ef2a72baeffd6319cfdcf346f519674b20e6a20a0fd7c",
          "transactionIndex": "0x12",
          "logIndex": "0x23",
          "removed": false
        }
      ],
      "status": "0x1",
      "logsBloom": "0x00000000000000000040000000000000000000000000000000000000000000000000000000000000000000000000000000008000002000000000000000000000004000000000000000000008000004800002000000000020040100000000000000000000020000000000000000100800000000000000000080000010000000000000000000000000000000000000000000000000000000000000000000000000200000000020000000000000000000000000000080000000000040000000004000000002000000000001000000000000000000000000000000100000000020020000000000000000000000000000000000000000000000000000000000100000",
      "type": "0x0",
      "effectiveGasPrice": "0xa3e9abd1"
    },
    {
      "transactionHash": "0xf2460f1af0ee61abb0c8ce565c6f6000580e11d2bf56e58190a6172583cc0ff6",
      "transactionIndex": "0x13",
      "blockHash": "0xb1926b874545353e6017ff8880451d387874cb623f41c92b1fa392cecec7568b",
      "blockNumber": "0x1f28831",
      "from": "0x0E7De56cbF04719f5910E845885Eb925a1cc39E0",
      "to": "0xa6C542A5736E501c3bE47657A621dd563FA1c8E3",
      "cumulativeGasUsed": "0x23864e",
      "gasUsed": "0xc725",
      "contractAddress": null,
      "logs": [
        {
          "address": "0xa6C542A5736E501c3bE47657A621dd563FA1c8E3",
          "topics": [
            "0xddf252ad1be2c89b69c2b068fc378daa952ba7f163c4a11628f55a4df523b3ef",
            "0x0000000000000000000000000000000000000000000000000000000000000000",
            "0x0000000000000000000000000e7de56cbf04719f5910e845885eb925a1cc39e0",
            "0x000000000000000000000000000000000000000000000000000000000000000e"
          ],
          "data": "0x",
          "blockHash": "0xb1926b874545353e6017ff8880451d387874cb623f41c92b1fa392cecec7568b",
          "blockNumber": "0x1f28831",
          "transactionHash": "0xf2460f1af0ee61abb0c8ce565c6f6000580e11d2bf56e58190a6172583cc0ff6",
          "transactionIndex": "0x13",
          "logIndex": "0x24",
          "removed": false
        },
        {
          "address": "0x0000000000000000000000000000000000001010",
          "topics": [
            "0x4dfe1bbbcf077ddc3e01291eea2d5c70c2b422b415d95645b9adcfd678cb1d63",
            "0x0000000000000000000000000000000000000000000000000000000000001010",
            "0x0000000000000000000000000e7de56cbf04719f5910e845885eb925a1cc39e0",
            "0x000000000000000000000000c275dc8be39f50d12f66b6a63629c39da5bae5bd"
          ],
          "data": "0x00000000000000000000000000000000000000000000000000007f825549a10a0000000000000000000000000000000000000000000000000c4a2eb9291b9803000000000000000000000000000000000000000000000e1cc02fae57d2e7a1ec0000000000000000000000000000000000000000000000000c49af36d3d1f6f9000000000000000000000000000000000000000000000e1cc0302dda283142f6",
          "blockHash": "0xb1926b874545353e6017ff8880451d387874cb623f41c92b1fa392cecec7568b",
          "blockNumber": "0x1f28831",
          "transactionHash": "0xf2460f1af0ee61abb0c8ce565c6f6000580e11d2bf56e58190a6172583cc0ff6",
          "transactionIndex": "0x13",
          "logIndex": "0x25",
          "removed": false
        }
      ],
      "status": "0x1",
      "logsBloom": "0x00000000000000000000000000000000000000000000000000000000000000000000000000000000000000000000000000008000002000000000000000000000004000000000000800000008000004800000000000000020040100000000000000000000020000000000000000100800000000000000000080000010000000000000000000000000000000000000000008000000000000000000000000000000200000000020000000000000000000000000000080000020000040000000004000000002000000000001000000000000000000000000000000100000000020000000000000000000000000000000000000000000000000000000000000100000",
      "type": "0x0",
      "effectiveGasPrice": "0xa3e9abd1"
    },
    {
      "transactionHash": "0x8473793a0d84d49ab2c48582bcae13aa5a0118a24b835f1ce865b2a55ac22abc",
      "transactionIndex": "0x14",
      "blockHash": "0xb1926b874545353e6017ff8880451d387874cb623f41c92b1fa392cecec7568b",
      "blockNumber": "0x1f28831",
      "from": "0x0E7De56cbF04719f5910E845885Eb925a1cc39E0",
      "to": "0xa6C542A5736E501c3bE47657A621dd563FA1c8E3",
      "cumulativeGasUsed": "0x244d73",
      "gasUsed": "0xc725",
      "contractAddress": null,
      "logs": [
        {
          "address": "0xa6C542A5736E501c3bE47657A621dd563FA1c8E3",
          "topics": [
            "0xddf252ad1be2c89b69c2b068fc378daa952ba7f163c4a11628f55a4df523b3ef",
            "0x0000000000000000000000000000000000000000000000000000000000000000",
            "0x0000000000000000000000000e7de56cbf04719f5910e845885eb925a1cc39e0",
            "0x000000000000000000000000000000000000000000000000000000000000000f"
          ],
          "data": "0x",
          "blockHash": "0xb1926b874545353e6017ff8880451d387874cb623f41c92b1fa392cecec7568b",
          "blockNumber": "0x1f28831",
          "transactionHash": "0x8473793a0d84d49ab2c48582bcae13aa5a0118a24b835f1ce865b2a55ac22abc",
          "transactionIndex": "0x14",
          "logIndex": "0x26",
          "removed": false
        },
        {
          "address": "0x0000000000000000000000000000000000001010",
          "topics": [
            "0x4dfe1bbbcf077ddc3e01291eea2d5c70c2b422b415d95645b9adcfd678cb1d63",
            "0x0000000000000000000000000000000000000000000000000000000000001010",
            "0x0000000000000000000000000e7de56cbf04719f5910e845885eb925a1cc39e0",
            "0x000000000000000000000000c275dc8be39f50d12f66b6a63629c39da5bae5bd"
          ],
          "data": "0x00000000000000000000000000000000000000000000000000007f825549a10a0000000000000000000000000000000000000000000000000c49af36d3c64bce000000000000000000000000000000000000000000000e1cc0302dda283142f60000000000000000000000000000000000000000000000000c492fb47e7caac4000000000000000000000000000000000000000000000e1cc030ad5c7d7ae400",
          "blockHash": "0xb1926b874545353e6017ff8880451d387874cb623f41c92b1fa392cecec7568b",
          "blockNumber": "0x1f28831",
          "transactionHash": "0x8473793a0d84d49ab2c48582bcae13aa5a0118a24b835f1ce865b2a55ac22abc",
          "transactionIndex": "0x14",
          "logIndex": "0x27",
          "removed": false
        }
      ],
      "status": "0x1",
      "logsBloom": "0x00000000000000000000000000000000000000000000000000000000000000000000000000000000000000000000000000008000002000000000000000000000004000000000000000000008000004800000000000000020040100000002000000000000020000000000000000100800000000000000000080000010000000000000000000000800000000000000000000000000000000000000000000000000200000000020000000000000000000000000000080000000000040000000004000000002000000000001000000000000000000000000000000100000000020000000000200000000000000000000000000000000000000000000000000100000",
      "type": "0x0",
      "effectiveGasPrice": "0xa3e9abd1"
    },
    {
      "transactionHash": "0xd5c11d65b08e1185ce9eb9800d175003eaf2d41024c1ec90df130904c6ff55e6",
      "transactionIndex": "0x15",
      "blockHash": "0xb1926b874545353e6017ff8880451d387874cb623f41c92b1fa392cecec7568b",
      "blockNumber": "0x1f28831",
      "from": "0x0E7De56cbF04719f5910E845885Eb925a1cc39E0",
      "to": "0xa6C542A5736E501c3bE47657A621dd563FA1c8E3",
      "cumulativeGasUsed": "0x251498",
      "gasUsed": "0xc725",
      "contractAddress": null,
      "logs": [
        {
          "address": "0xa6C542A5736E501c3bE47657A621dd563FA1c8E3",
          "topics": [
            "0xddf252ad1be2c89b69c2b068fc378daa952ba7f163c4a11628f55a4df523b3ef",
            "0x0000000000000000000000000000000000000000000000000000000000000000",
            "0x0000000000000000000000000e7de56cbf04719f5910e845885eb925a1cc39e0",
            "0x0000000000000000000000000000000000000000000000000000000000000010"
          ],
          "data": "0x",
          "blockHash": "0xb1926b874545353e6017ff8880451d387874cb623f41c92b1fa392cecec7568b",
          "blockNumber": "0x1f28831",
          "transactionHash": "0xd5c11d65b08e1185ce9eb9800d175003eaf2d41024c1ec90df130904c6ff55e6",
          "transactionIndex": "0x15",
          "logIndex": "0x28",
          "removed": false
        },
        {
          "address": "0x0000000000000000000000000000000000001010",
          "topics": [
            "0x4dfe1bbbcf077ddc3e01291eea2d5c70c2b422b415d95645b9adcfd678cb1d63",
            "0x0000000000000000000000000000000000000000000000000000000000001010",
            "0x0000000000000000000000000e7de56cbf04719f5910e845885eb925a1cc39e0",
            "0x000000000000000000000000c275dc8be39f50d12f66b6a63629c39da5bae5bd"
          ],
          "data": "0x00000000000000000000000000000000000000000000000000007f825549a10a0000000000000000000000000000000000000000000000000c492fb47e70ff99000000000000000000000000000000000000000000000e1cc030ad5c7d7ae4000000000000000000000000000000000000000000000000000c48b03229275e8f000000000000000000000000000000000000000000000e1cc0312cded2c4850a",
          "blockHash": "0xb1926b874545353e6017ff8880451d387874cb623f41c92b1fa392cecec7568b",
          "blockNumber": "0x1f28831",
          "transactionHash": "0xd5c11d65b08e1185ce9eb9800d175003eaf2d41024c1ec90df130904c6ff55e6",
          "transactionIndex": "0x15",
          "logIndex": "0x29",
          "removed": false
        }
      ],
      "status": "0x1",
      "logsBloom": "0x00000000100000000000000000000000000000000000000000000000000000000000000000000000000000000000000000008000002000000000000000000000004000000000000000000008000004800000000000000020040100000000000000000000020000000000000000100800000000000000000080000010040000000000000000000000000000000000000000000100000000000000000000000000200000000020000000000000000000000000000080000000000040000000004000000002000000000001000000000000000000000000000000100000000020000000000000000000000000000000000000000000000000000000000000100000",
      "type": "0x0",
      "effectiveGasPrice": "0xa3e9abd1"
    },
    {
      "transactionHash": "0x3c87cb9528792d8ffcac7ac25ecc0135e38840dec9b640db342f87ad0d7ceda7",
      "transactionIndex": "0x16",
      "blockHash": "0xb1926b874545353e6017ff8880451d387874cb623f41c92b1fa392cecec7568b",
      "blockNumber": "0x1f28831",
      "from": "0x0E7De56cbF04719f5910E845885Eb925a1cc39E0",
      "to": "0xa6C542A5736E501c3bE47657A621dd563FA1c8E3",
      "cumulativeGasUsed": "0x25dbbd",
      "gasUsed": "0xc725",
      "contractAddress": null,
      "logs": [
        {
          "address": "0xa6C542A5736E501c3bE47657A621dd563FA1c8E3",
          "topics": [
            "0xddf252ad1be2c89b69c2b068fc378daa952ba7f163c4a11628f55a4df523b3ef",
            "0x0000000000000000000000000000000000000000000000000000000000000000",
            "0x0000000000000000000000000e7de56cbf04719f5910e845885eb925a1cc39e0",
            "0x0000000000000000000000000000000000000000000000000000000000000011"
          ],
          "data": "0x",
          "blockHash": "0xb1926b874545353e6017ff8880451d387874cb623f41c92b1fa392cecec7568b",
          "blockNumber": "0x1f28831",
          "transactionHash": "0x3c87cb9528792d8ffcac7ac25ecc0135e38840dec9b640db342f87ad0d7ceda7",
          "transactionIndex": "0x16",
          "logIndex": "0x2a",
          "removed": false
        },
        {
          "address": "0x0000000000000000000000000000000000001010",
          "topics": [
            "0x4dfe1bbbcf077ddc3e01291eea2d5c70c2b422b415d95645b9adcfd678cb1d63",
            "0x0000000000000000000000000000000000000000000000000000000000001010",
            "0x0000000000000000000000000e7de56cbf04719f5910e845885eb925a1cc39e0",
            "0x000000000000000000000000c275dc8be39f50d12f66b6a63629c39da5bae5bd"
          ],
          "data": "0x00000000000000000000000000000000000000000000000000007f825549a10a0000000000000000000000000000000000000000000000000c48b032291bb364000000000000000000000000000000000000000000000e1cc0312cded2c4850a0000000000000000000000000000000000000000000000000c4830afd3d2125a000000000000000000000000000000000000000000000e1cc031ac61280e2614",
          "blockHash": "0xb1926b874545353e6017ff8880451d387874cb623f41c92b1fa392cecec7568b",
          "blockNumber": "0x1f28831",
          "transactionHash": "0x3c87cb9528792d8ffcac7ac25ecc0135e38840dec9b640db342f87ad0d7ceda7",
          "transactionIndex": "0x16",
          "logIndex": "0x2b",
          "removed": false
        }
      ],
      "status": "0x1",
      "logsBloom": "0x00000000000000000000000000000000000000000000000000000000000000000000000000000000000000000000000000008000002000000000000000000000004000000000000000000008000004800000000000000020040100000000000000000000020000000000000000100800000000004000000080000010000000000000000000000000000000000000000000000000000000000000000000000000200000000020000000000000000000000000000080000000000040000400004000001002000000000001000000000000000000000000000000100000000020000000000000000000000000000000000000000000000000000000000000100000",
      "type": "0x0",
      "effectiveGasPrice": "0xa3e9abd1"
    },
    {
      "transactionHash": "0xce48f9e359abc82bf92b01d5a8d2a5bea7c809b20223d2b2de9e3241b34378d7",
      "transactionIndex": "0x17",
      "blockHash": "0xb1926b874545353e6017ff8880451d387874cb623f41c92b1fa392cecec7568b",
      "blockNumber": "0x1f28831",
      "from": "0x0E7De56cbF04719f5910E845885Eb925a1cc39E0",
      "to": "0xa6C542A5736E501c3bE47657A621dd563FA1c8E3",
      "cumulativeGasUsed": "0x26a2e2",
      "gasUsed": "0xc725",
      "contractAddress": null,
      "logs": [
        {
          "address": "0xa6C542A5736E501c3bE47657A621dd563FA1c8E3",
          "topics": [
            "0xddf252ad1be2c89b69c2b068fc378daa952ba7f163c4a11628f55a4df523b3ef",
            "0x0000000000000000000000000000000000000000000000000000000000000000",
            "0x0000000000000000000000000e7de56cbf04719f5910e845885eb925a1cc39e0",
            "0x0000000000000000000000000000000000000000000000000000000000000012"
          ],
          "data": "0x",
          "blockHash": "0xb1926b874545353e6017ff8880451d387874cb623f41c92b1fa392cecec7568b",
          "blockNumber": "0x1f28831",
          "transactionHash": "0xce48f9e359abc82bf92b01d5a8d2a5bea7c809b20223d2b2de9e3241b34378d7",
          "transactionIndex": "0x17",
          "logIndex": "0x2c",
          "removed": false
        },
        {
          "address": "0x0000000000000000000000000000000000001010",
          "topics": [
            "0x4dfe1bbbcf077ddc3e01291eea2d5c70c2b422b415d95645b9adcfd678cb1d63",
            "0x0000000000000000000000000000000000000000000000000000000000001010",
            "0x0000000000000000000000000e7de56cbf04719f5910e845885eb925a1cc39e0",
            "0x000000000000000000000000c275dc8be39f50d12f66b6a63629c39da5bae5bd"
          ],
          "data": "0x00000000000000000000000000000000000000000000000000007f825549a10a0000000000000000000000000000000000000000000000000c4830afd3c6672f000000000000000000000000000000000000000000000e1cc031ac61280e26140000000000000000000000000000000000000000000000000c47b12d7e7cc625000000000000000000000000000000000000000000000e1cc0322be37d57c71e",
          "blockHash": "0xb1926b874545353e6017ff8880451d387874cb623f41c92b1fa392cecec7568b",
          "blockNumber": "0x1f28831",
          "transactionHash": "0xce48f9e359abc82bf92b01d5a8d2a5bea7c809b20223d2b2de9e3241b34378d7",
          "transactionIndex": "0x17",
          "logIndex": "0x2d",
          "removed": false
        }
      ],
      "status": "0x1",
      "logsBloom": "0x00000000000000000000000000000000000000000000000000000000000000000000000000000000000000000000000000008000002000000000000000000000004000000000000000000008000004800000000000000020040100000000000000000000020000000000000000100800000000000000000080000010000000000000000000000000000000000000040000000000000000000000000000000000200000000020000000000000000000000000000080000040000040000000004000000002000000000401000000000000000000000000000000100000000020000000000000000000000000000000000000000000000000000000000000100000",
      "type": "0x0",
      "effectiveGasPrice": "0xa3e9abd1"
    },
    {
      "transactionHash": "0xa22c67430e0c7bb00880e369362fc4902548b8a73f456e4a75bc056cfc2dfba3",
      "transactionIndex": "0x18",
      "blockHash": "0xb1926b874545353e6017ff8880451d387874cb623f41c92b1fa392cecec7568b",
      "blockNumber": "0x1f28831",
      "from": "0x0E7De56cbF04719f5910E845885Eb925a1cc39E0",
      "to": "0xa6C542A5736E501c3bE47657A621dd563FA1c8E3",
      "cumulativeGasUsed": "0x276a07",
      "gasUsed": "0xc725",
      "contractAddress": null,
      "logs": [
        {
          "address": "0xa6C542A5736E501c3bE47657A621dd563FA1c8E3",
          "topics": [
            "0xddf252ad1be2c89b69c2b068fc378daa952ba7f163c4a11628f55a4df523b3ef",
            "0x0000000000000000000000000000000000000000000000000000000000000000",
            "0x0000000000000000000000000e7de56cbf04719f5910e845885eb925a1cc39e0",
            "0x0000000000000000000000000000000000000000000000000000000000000013"
          ],
          "data": "0x",
          "blockHash": "0xb1926b874545353e6017ff8880451d387874cb623f41c92b1fa392cecec7568b",
          "blockNumber": "0x1f28831",
          "transactionHash": "0xa22c67430e0c7bb00880e369362fc4902548b8a73f456e4a75bc056cfc2dfba3",
          "transactionIndex": "0x18",
          "logIndex": "0x2e",
          "removed": false
        },
        {
          "address": "0x0000000000000000000000000000000000001010",
          "topics": [
            "0x4dfe1bbbcf077ddc3e01291eea2d5c70c2b422b415d95645b9adcfd678cb1d63",
            "0x0000000000000000000000000000000000000000000000000000000000001010",
            "0x0000000000000000000000000e7de56cbf04719f5910e845885eb925a1cc39e0",
            "0x000000000000000000000000c275dc8be39f50d12f66b6a63629c39da5bae5bd"
          ],
          "data": "0x00000000000000000000000000000000000000000000000000007f825549a10a0000000000000000000000000000000000000000000000000c47b12d7e711afa000000000000000000000000000000000000000000000e1cc0322be37d57c71e0000000000000000000000000000000000000000000000000c4731ab292779f0000000000000000000000000000000000000000000000e1cc032ab65d2a16828",
          "blockHash": "0xb1926b874545353e6017ff8880451d387874cb623f41c92b1fa392cecec7568b",
          "blockNumber": "0x1f28831",
          "transactionHash": "0xa22c67430e0c7bb00880e369362fc4902548b8a73f456e4a75bc056cfc2dfba3",
          "transactionIndex": "0x18",
          "logIndex": "0x2f",
          "removed": false
        }
      ],
      "status": "0x1",
      "logsBloom": "0x20000000000000000000000000800000000000000000000000000000000000000000000040000000000000000000000000008000002000000000000000000000004000000000000000000008000004800000000000000020040100000000000000000000020000000000000000100800000000000000000080000010000000000000000000000000000000000000000000000000000000000000000000000000200000000020000000000000000000000000000080000000000040000000004000000002000000000001000000000000000000000000000000100000000020000000000000000000000000000000000000000000000000000000000000100000",
      "type": "0x0",
      "effectiveGasPrice": "0xa3e9abd1"
    }
  ],
  "libraries": [],
  "pending": [],
  "path": "/Users/stevennevins/Documents/fractional/rl-monorepo/contracts/broadcast/DeployScript.s.sol/80001/run-latest.json",
  "returns": {},
  "timestamp": 1677882079,
  "chain": 80001,
  "multi": false,
  "commit": "8cca771"
}